{
    "contractName": "M9E",
    "abi": [
        {
            "inputs": [
                {
                    "internalType": "string",
                    "name": "baseURI",
                    "type": "string"
                }
            ],
            "stateMutability": "nonpayable",
            "type": "constructor"
        },
        {
            "anonymous": false,
            "inputs": [
                {
                    "indexed": true,
                    "internalType": "address",
                    "name": "owner",
                    "type": "address"
                },
                {
                    "indexed": true,
                    "internalType": "address",
                    "name": "approved",
                    "type": "address"
                },
                {
                    "indexed": true,
                    "internalType": "uint256",
                    "name": "tokenId",
                    "type": "uint256"
                }
            ],
            "name": "Approval",
            "type": "event"
        },
        {
            "anonymous": false,
            "inputs": [
                {
                    "indexed": true,
                    "internalType": "address",
                    "name": "owner",
                    "type": "address"
                },
                {
                    "indexed": true,
                    "internalType": "address",
                    "name": "operator",
                    "type": "address"
                },
                {
                    "indexed": false,
                    "internalType": "bool",
                    "name": "approved",
                    "type": "bool"
                }
            ],
            "name": "ApprovalForAll",
            "type": "event"
        },
        {
            "anonymous": false,
            "inputs": [
                {
                    "indexed": false,
                    "internalType": "uint256",
                    "name": "max",
                    "type": "uint256"
                }
            ],
            "name": "NewMaxElement",
            "type": "event"
        },
        {
            "anonymous": false,
            "inputs": [
                {
                    "indexed": false,
                    "internalType": "uint256",
                    "name": "price",
                    "type": "uint256"
                }
            ],
            "name": "NewPriceEvent",
            "type": "event"
        },
        {
            "anonymous": false,
            "inputs": [
                {
                    "indexed": true,
                    "internalType": "address",
                    "name": "previousOwner",
                    "type": "address"
                },
                {
                    "indexed": true,
                    "internalType": "address",
                    "name": "newOwner",
                    "type": "address"
                }
            ],
            "name": "OwnershipTransferred",
            "type": "event"
        },
        {
            "anonymous": false,
            "inputs": [
                {
                    "indexed": false,
                    "internalType": "bool",
                    "name": "pause",
                    "type": "bool"
                }
            ],
            "name": "PauseEvent",
            "type": "event"
        },
        {
            "anonymous": false,
            "inputs": [
                {
                    "indexed": true,
                    "internalType": "address",
                    "name": "from",
                    "type": "address"
                },
                {
                    "indexed": true,
                    "internalType": "address",
                    "name": "to",
                    "type": "address"
                },
                {
                    "indexed": true,
                    "internalType": "uint256",
                    "name": "tokenId",
                    "type": "uint256"
                }
            ],
            "name": "Transfer",
            "type": "event"
        },
        {
            "anonymous": false,
            "inputs": [
                {
                    "indexed": true,
                    "internalType": "uint256",
                    "name": "id",
                    "type": "uint256"
                }
            ],
            "name": "welcomeToM9E",
            "type": "event"
        },
        {
            "inputs": [],
            "name": "HIDE_FROM",
            "outputs": [
                {
                    "internalType": "uint256",
                    "name": "",
                    "type": "uint256"
                }
            ],
            "stateMutability": "view",
            "type": "function",
            "constant": true
        },
        {
            "inputs": [],
            "name": "HIDE_TO",
            "outputs": [
                {
                    "internalType": "uint256",
                    "name": "",
                    "type": "uint256"
                }
            ],
            "stateMutability": "view",
            "type": "function",
            "constant": true
        },
        {
            "inputs": [],
            "name": "MAX_ELEMENTS",
            "outputs": [
                {
                    "internalType": "uint256",
                    "name": "",
                    "type": "uint256"
                }
            ],
            "stateMutability": "view",
            "type": "function",
            "constant": true
        },
        {
            "inputs": [],
            "name": "META_REVEAL",
            "outputs": [
                {
                    "internalType": "bool",
                    "name": "",
                    "type": "bool"
                }
            ],
            "stateMutability": "view",
            "type": "function",
            "constant": true
        },
        {
            "inputs": [],
            "name": "PRICE",
            "outputs": [
                {
                    "internalType": "uint256",
                    "name": "",
                    "type": "uint256"
                }
            ],
            "stateMutability": "view",
            "type": "function",
            "constant": true
        },
        {
            "inputs": [],
            "name": "START_AT",
            "outputs": [
                {
                    "internalType": "uint256",
                    "name": "",
                    "type": "uint256"
                }
            ],
            "stateMutability": "view",
            "type": "function",
            "constant": true
        },
        {
            "inputs": [
                {
                    "internalType": "address",
                    "name": "to",
                    "type": "address"
                },
                {
                    "internalType": "uint256",
                    "name": "tokenId",
                    "type": "uint256"
                }
            ],
            "name": "approve",
            "outputs": [],
            "stateMutability": "nonpayable",
            "type": "function"
        },
        {
            "inputs": [
                {
                    "internalType": "address",
                    "name": "owner",
                    "type": "address"
                }
            ],
            "name": "balanceOf",
            "outputs": [
                {
                    "internalType": "uint256",
                    "name": "",
                    "type": "uint256"
                }
            ],
            "stateMutability": "view",
            "type": "function",
            "constant": true
        },
        {
            "inputs": [],
            "name": "baseTokenURI",
            "outputs": [
                {
                    "internalType": "string",
                    "name": "",
                    "type": "string"
                }
            ],
            "stateMutability": "view",
            "type": "function",
            "constant": true
        },
        {
            "inputs": [],
            "name": "creator1Address",
            "outputs": [
                {
                    "internalType": "address",
                    "name": "",
                    "type": "address"
                }
            ],
            "stateMutability": "view",
            "type": "function",
            "constant": true
        },
        {
            "inputs": [],
            "name": "creator2Address",
            "outputs": [
                {
                    "internalType": "address",
                    "name": "",
                    "type": "address"
                }
            ],
            "stateMutability": "view",
            "type": "function",
            "constant": true
        },
        {
            "inputs": [
                {
                    "internalType": "uint256",
                    "name": "tokenId",
                    "type": "uint256"
                }
            ],
            "name": "getApproved",
            "outputs": [
                {
                    "internalType": "address",
                    "name": "",
                    "type": "address"
                }
            ],
            "stateMutability": "view",
            "type": "function",
            "constant": true
        },
        {
            "inputs": [
                {
                    "internalType": "address",
                    "name": "owner",
                    "type": "address"
                },
                {
                    "internalType": "address",
                    "name": "operator",
                    "type": "address"
                }
            ],
            "name": "isApprovedForAll",
            "outputs": [
                {
                    "internalType": "bool",
                    "name": "",
                    "type": "bool"
                }
            ],
            "stateMutability": "view",
            "type": "function",
            "constant": true
        },
        {
            "inputs": [],
            "name": "name",
            "outputs": [
                {
                    "internalType": "string",
                    "name": "",
                    "type": "string"
                }
            ],
            "stateMutability": "view",
            "type": "function",
            "constant": true
        },
        {
            "inputs": [],
            "name": "owner",
            "outputs": [
                {
                    "internalType": "address",
                    "name": "",
                    "type": "address"
                }
            ],
            "stateMutability": "view",
            "type": "function",
            "constant": true
        },
        {
            "inputs": [
                {
                    "internalType": "uint256",
                    "name": "tokenId",
                    "type": "uint256"
                }
            ],
            "name": "ownerOf",
            "outputs": [
                {
                    "internalType": "address",
                    "name": "",
                    "type": "address"
                }
            ],
            "stateMutability": "view",
            "type": "function",
            "constant": true
        },
        {
            "inputs": [
                {
                    "internalType": "uint256",
                    "name": "tokenId",
                    "type": "uint256"
                }
            ],
            "name": "rawOwnerOf",
            "outputs": [
                {
                    "internalType": "address",
                    "name": "",
                    "type": "address"
                }
            ],
            "stateMutability": "view",
            "type": "function",
            "constant": true
        },
        {
            "inputs": [],
            "name": "renounceOwnership",
            "outputs": [],
            "stateMutability": "nonpayable",
            "type": "function"
        },
        {
            "inputs": [
                {
                    "internalType": "address",
                    "name": "from",
                    "type": "address"
                },
                {
                    "internalType": "address",
                    "name": "to",
                    "type": "address"
                },
                {
                    "internalType": "uint256",
                    "name": "tokenId",
                    "type": "uint256"
                }
            ],
            "name": "safeTransferFrom",
            "outputs": [],
            "stateMutability": "nonpayable",
            "type": "function"
        },
        {
            "inputs": [
                {
                    "internalType": "address",
                    "name": "from",
                    "type": "address"
                },
                {
                    "internalType": "address",
                    "name": "to",
                    "type": "address"
                },
                {
                    "internalType": "uint256",
                    "name": "tokenId",
                    "type": "uint256"
                },
                {
                    "internalType": "bytes",
                    "name": "_data",
                    "type": "bytes"
                }
            ],
            "name": "safeTransferFrom",
            "outputs": [],
            "stateMutability": "nonpayable",
            "type": "function"
        },
        {
            "inputs": [],
            "name": "sampleTokenURI",
            "outputs": [
                {
                    "internalType": "string",
                    "name": "",
                    "type": "string"
                }
            ],
            "stateMutability": "view",
            "type": "function",
            "constant": true
        },
        {
            "inputs": [
                {
                    "internalType": "address",
                    "name": "operator",
                    "type": "address"
                },
                {
                    "internalType": "bool",
                    "name": "approved",
                    "type": "bool"
                }
            ],
            "name": "setApprovalForAll",
            "outputs": [],
            "stateMutability": "nonpayable",
            "type": "function"
        },
        {
            "inputs": [
                {
                    "internalType": "bytes4",
                    "name": "interfaceId",
                    "type": "bytes4"
                }
            ],
            "name": "supportsInterface",
            "outputs": [
                {
                    "internalType": "bool",
                    "name": "",
                    "type": "bool"
                }
            ],
            "stateMutability": "view",
            "type": "function",
            "constant": true
        },
        {
            "inputs": [],
            "name": "symbol",
            "outputs": [
                {
                    "internalType": "string",
                    "name": "",
                    "type": "string"
                }
            ],
            "stateMutability": "view",
            "type": "function",
            "constant": true
        },
        {
            "inputs": [
                {
                    "internalType": "uint256",
                    "name": "index",
                    "type": "uint256"
                }
            ],
            "name": "tokenByIndex",
            "outputs": [
                {
                    "internalType": "uint256",
                    "name": "",
                    "type": "uint256"
                }
            ],
            "stateMutability": "view",
            "type": "function",
            "constant": true
        },
        {
            "inputs": [
                {
                    "internalType": "address",
                    "name": "owner",
                    "type": "address"
                },
                {
                    "internalType": "uint256",
                    "name": "index",
                    "type": "uint256"
                }
            ],
            "name": "tokenOfOwnerByIndex",
            "outputs": [
                {
                    "internalType": "uint256",
                    "name": "",
                    "type": "uint256"
                }
            ],
            "stateMutability": "view",
            "type": "function",
            "constant": true
        },
        {
            "inputs": [],
            "name": "totalSupply",
            "outputs": [
                {
                    "internalType": "uint256",
                    "name": "",
                    "type": "uint256"
                }
            ],
            "stateMutability": "view",
            "type": "function",
            "constant": true
        },
        {
            "inputs": [
                {
                    "internalType": "address",
                    "name": "from",
                    "type": "address"
                },
                {
                    "internalType": "address",
                    "name": "to",
                    "type": "address"
                },
                {
                    "internalType": "uint256",
                    "name": "tokenId",
                    "type": "uint256"
                }
            ],
            "name": "transferFrom",
            "outputs": [],
            "stateMutability": "nonpayable",
            "type": "function"
        },
        {
            "inputs": [
                {
                    "internalType": "address",
                    "name": "newOwner",
                    "type": "address"
                }
            ],
            "name": "transferOwnership",
            "outputs": [],
            "stateMutability": "nonpayable",
            "type": "function"
        },
        {
            "inputs": [
                {
                    "internalType": "string",
                    "name": "baseURI",
                    "type": "string"
                }
            ],
            "name": "setBaseURI",
            "outputs": [],
            "stateMutability": "nonpayable",
            "type": "function"
        },
        {
            "inputs": [
                {
                    "internalType": "string",
                    "name": "sampleURI",
                    "type": "string"
                }
            ],
            "name": "setSampleURI",
            "outputs": [],
            "stateMutability": "nonpayable",
            "type": "function"
        },
        {
            "inputs": [],
            "name": "totalToken",
            "outputs": [
                {
                    "internalType": "uint256",
                    "name": "",
                    "type": "uint256"
                }
            ],
            "stateMutability": "view",
            "type": "function",
            "constant": true
        },
        {
            "inputs": [
                {
                    "internalType": "uint256",
                    "name": "tokenId",
                    "type": "uint256"
                }
            ],
            "name": "tokenURI",
            "outputs": [
                {
                    "internalType": "string",
                    "name": "",
                    "type": "string"
                }
            ],
            "stateMutability": "view",
            "type": "function",
            "constant": true
        },
        {
            "inputs": [
                {
                    "internalType": "uint256",
                    "name": "_tokenAmount",
                    "type": "uint256"
                },
                {
                    "internalType": "uint256",
                    "name": "_timestamp",
                    "type": "uint256"
                },
                {
                    "internalType": "bytes",
                    "name": "_signature",
                    "type": "bytes"
                }
            ],
            "name": "mint",
            "outputs": [],
            "stateMutability": "payable",
            "type": "function",
            "payable": true
        },
        {
            "inputs": [
                {
                    "internalType": "address",
                    "name": "wallet",
                    "type": "address"
                },
                {
                    "internalType": "uint256",
                    "name": "_tokenAmount",
                    "type": "uint256"
                },
                {
                    "internalType": "uint256",
                    "name": "_timestamp",
                    "type": "uint256"
                },
                {
                    "internalType": "bytes",
                    "name": "_signature",
                    "type": "bytes"
                }
            ],
            "name": "signatureWallet",
            "outputs": [
                {
                    "internalType": "address",
                    "name": "",
                    "type": "address"
                }
            ],
            "stateMutability": "pure",
            "type": "function",
            "constant": true
        },
        {
            "inputs": [
                {
                    "internalType": "uint256",
                    "name": "_count",
                    "type": "uint256"
                }
            ],
            "name": "price",
            "outputs": [
                {
                    "internalType": "uint256",
                    "name": "",
                    "type": "uint256"
                }
            ],
            "stateMutability": "view",
            "type": "function",
            "constant": true
        },
        {
            "inputs": [
                {
                    "internalType": "address",
                    "name": "_owner",
                    "type": "address"
                }
            ],
            "name": "walletOfOwner",
            "outputs": [
                {
                    "internalType": "uint256[]",
                    "name": "",
                    "type": "uint256[]"
                }
            ],
            "stateMutability": "view",
            "type": "function",
            "constant": true
        },
        {
            "inputs": [
                {
                    "internalType": "bool",
                    "name": "_pause",
                    "type": "bool"
                }
            ],
            "name": "setPause",
            "outputs": [],
            "stateMutability": "nonpayable",
            "type": "function"
        },
        {
            "inputs": [
                {
                    "internalType": "uint256",
                    "name": "_price",
                    "type": "uint256"
                }
            ],
            "name": "setPrice",
            "outputs": [],
            "stateMutability": "nonpayable",
            "type": "function"
        },
        {
            "inputs": [
                {
                    "internalType": "uint256",
                    "name": "_max",
                    "type": "uint256"
                }
            ],
            "name": "setMaxElement",
            "outputs": [],
            "stateMutability": "nonpayable",
            "type": "function"
        },
        {
            "inputs": [
                {
                    "internalType": "bool",
                    "name": "_reveal",
                    "type": "bool"
                },
                {
                    "internalType": "uint256",
                    "name": "_from",
                    "type": "uint256"
                },
                {
                    "internalType": "uint256",
                    "name": "_to",
                    "type": "uint256"
                }
            ],
            "name": "setMetaReveal",
            "outputs": [],
            "stateMutability": "nonpayable",
            "type": "function"
        },
        {
            "inputs": [],
            "name": "withdrawAll",
            "outputs": [],
            "stateMutability": "nonpayable",
            "type": "function"
        },
        {
            "inputs": [
                {
                    "internalType": "address[]",
                    "name": "_addrs",
                    "type": "address[]"
                },
                {
                    "internalType": "uint256[]",
                    "name": "_tokenAmounts",
                    "type": "uint256[]"
                }
            ],
            "name": "giftMint",
            "outputs": [],
            "stateMutability": "nonpayable",
            "type": "function"
        }
    ],
    "bytecode": "0x60806040526103e7600b81905567013fbe85edc90000600c55600d8054600160ff1991821681179092556010805490911690556011556012553480156200004557600080fd5b50604051620035ef380380620035ef83398101604081905262000068916200026e565b604080518082018252600b81526a4d6173746572394579657360a81b6020808301918252835180850190945260038452624d394560e81b908401528151919291620000b691600091620001c8565b508051620000cc906001906020840190620001c8565b505050620000e9620000e3620000fb60201b60201c565b620000ff565b620000f48162000151565b50620003c5565b3390565b600a80546001600160a01b038381166001600160a01b0319831681179093556040519116919082907f8be0079c531659141344cd1fd0a4f28419497f9722a3daafe3b4186f6b6457e090600090a35050565b6200015b620000fb565b6001600160a01b03166200016e620001b9565b6001600160a01b031614620001a05760405162461bcd60e51b815260040162000197906200033d565b60405180910390fd5b8051620001b590600f906020840190620001c8565b5050565b600a546001600160a01b031690565b828054620001d69062000372565b90600052602060002090601f016020900481019282620001fa576000855562000245565b82601f106200021557805160ff191683800117855562000245565b8280016001018555821562000245579182015b828111156200024557825182559160200191906001019062000228565b506200025392915062000257565b5090565b5b8082111562000253576000815560010162000258565b6000602080838503121562000281578182fd5b82516001600160401b038082111562000298578384fd5b818501915085601f830112620002ac578384fd5b815181811115620002c157620002c1620003af565b604051601f8201601f1916810185018381118282101715620002e757620002e7620003af565b6040528181528382018501881015620002fe578586fd5b8592505b8183101562000321578383018501518184018601529184019162000302565b818311156200033257858583830101525b979650505050505050565b6020808252818101527f4f776e61626c653a2063616c6c6572206973206e6f7420746865206f776e6572604082015260600190565b6002810460018216806200038757607f821691505b60208210811415620003a957634e487b7160e01b600052602260045260246000fd5b50919050565b634e487b7160e01b600052604160045260246000fd5b61321a80620003d56000396000f3fe60806040526004361061025c5760003560e01c8063715018a611610144578063b8ea3cb0116100b6578063c87b56dd1161007a578063c87b56dd1461069b578063d0913505146106bb578063d547cfb7146106d0578063e985e9c5146106e5578063f232056814610705578063f2fde38b146107255761025c565b8063b8ea3cb01461061c578063bc13a6881461063c578063bedb86fb14610651578063bf7b766d14610671578063c7427093146106865761025c565b80638da5cb5b116101085780638da5cb5b1461057d57806391b7f5ed1461059257806395d89b41146105b2578063a22cb465146105c7578063aa3d92fb146105e7578063b88d4fde146105fc5761025c565b8063715018a6146104fe5780637f81be6914610513578063853828b61461053357806389ece941146105485780638d859f3e146105685761025c565b806326a49e37116101dd5780634f6ccce7116101a15780634f6ccce71461044957806355f804b314610469578063626be567146104895780636352211e1461049e5780636ea5d178146104be57806370a08231146104de5761025c565b806326a49e37146103a75780632f745c59146103c75780633502a716146103e757806342842e0e146103fc578063438b63001461041c5761025c565b8063103c4b5311610224578063103c4b531461031b57806312c2449f1461033057806318160ddd146103505780631ec858ec1461037257806323b872dd146103875761025c565b806301ffc9a71461026157806306fdde0314610297578063081812fc146102b957806308dc9f42146102e6578063095ea7b3146102fb575b600080fd5b34801561026d57600080fd5b5061028161027c3660046126e3565b610745565b60405161028e91906128db565b60405180910390f35b3480156102a357600080fd5b506102ac610772565b60405161028e9190612904565b3480156102c557600080fd5b506102d96102d4366004612761565b610804565b60405161028e9190612825565b6102f96102f4366004612779565b610850565b005b34801561030757600080fd5b506102f9610316366004612569565b6109d8565b34801561032757600080fd5b506102ac610a70565b34801561033c57600080fd5b506102f961034b3660046126b1565b610afe565b34801561035c57600080fd5b50610365610b57565b60405161028e919061301d565b34801561037e57600080fd5b50610365610b5d565b34801561039357600080fd5b506102f96103a236600461249f565b610b63565b3480156103b357600080fd5b506103656103c2366004612761565b610b9b565b3480156103d357600080fd5b506103656103e2366004612569565b610bab565b3480156103f357600080fd5b50610365610bfd565b34801561040857600080fd5b506102f961041736600461249f565b610c03565b34801561042857600080fd5b5061043c610437366004612453565b610c1e565b60405161028e9190612897565b34801561045557600080fd5b50610365610464366004612761565b610cdc565b34801561047557600080fd5b506102f961048436600461271b565b610d37565b34801561049557600080fd5b50610365610d8d565b3480156104aa57600080fd5b506102d96104b9366004612761565b610d9e565b3480156104ca57600080fd5b506102f96104d93660046125d9565b610dd3565b3480156104ea57600080fd5b506103656104f9366004612453565b610f46565b34801561050a57600080fd5b506102f9610f8a565b34801561051f57600080fd5b506102d961052e366004612761565b610fd5565b34801561053f57600080fd5b506102f9610ff0565b34801561055457600080fd5b506102f961056336600461271b565b61108e565b34801561057457600080fd5b506103656110e0565b34801561058957600080fd5b506102d96110e6565b34801561059e57600080fd5b506102f96105ad366004612761565b6110f5565b3480156105be57600080fd5b506102ac611174565b3480156105d357600080fd5b506102f96105e2366004612540565b611183565b3480156105f357600080fd5b506102d9611251565b34801561060857600080fd5b506102f96106173660046124da565b611269565b34801561062857600080fd5b506102f9610637366004612761565b6112a8565b34801561064857600080fd5b5061028161131c565b34801561065d57600080fd5b506102f961066c366004612697565b611325565b34801561067d57600080fd5b506103656113a8565b34801561069257600080fd5b506103656113ad565b3480156106a757600080fd5b506102ac6106b6366004612761565b6113b3565b3480156106c757600080fd5b506102d96114f0565b3480156106dc57600080fd5b506102ac611508565b3480156106f157600080fd5b5061028161070036600461246d565b611515565b34801561071157600080fd5b506102d9610720366004612592565b611543565b34801561073157600080fd5b506102f9610740366004612453565b611584565b60006001600160e01b0319821663780e9d6360e01b148061076a575061076a826115f2565b90505b919050565b60606000805461078190613102565b80601f01602080910402602001604051908101604052809291908181526020018280546107ad90613102565b80156107fa5780601f106107cf576101008083540402835291602001916107fa565b820191906000526020600020905b8154815290600101906020018083116107dd57829003601f168201915b5050505050905090565b600061080f82611632565b6108345760405162461bcd60e51b815260040161082b90612d62565b60405180910390fd5b506000908152600460205260409020546001600160a01b031690565b600b5461085b610d8d565b11156108795760405162461bcd60e51b815260040161082b90612ffb565b600d5460ff161561089c5760405162461bcd60e51b815260040161082b90612ee7565b60006108a6610d8d565b905060038411156108c95760405162461bcd60e51b815260040161082b90612b5c565b600b546108d68583613074565b11156108f45760405162461bcd60e51b815260040161082b90612b5c565b6108fd84610b9b565b34101561091c5760405162461bcd60e51b815260040161082b90612e7b565b600061092661164f565b9050600061093682878787611543565b90506109406110e6565b6001600160a01b0316816001600160a01b0316146109705760405162461bcd60e51b815260040161082b90612bcb565b61097b601e866130bf565b42101561099a5760405162461bcd60e51b815260040161082b90612f0f565b60015b868160ff16116109cf576109bd836109b860ff841687613074565b611653565b806109c781613158565b91505061099d565b50505050505050565b60006109e382610d9e565b9050806001600160a01b0316836001600160a01b03161415610a175760405162461bcd60e51b815260040161082b90612ea6565b806001600160a01b0316610a2961164f565b6001600160a01b03161480610a455750610a458161070061164f565b610a615760405162461bcd60e51b815260040161082b90612bfb565b610a6b8383611696565b505050565b60138054610a7d90613102565b80601f0160208091040260200160405190810160405280929190818152602001828054610aa990613102565b8015610af65780601f10610acb57610100808354040283529160200191610af6565b820191906000526020600020905b815481529060010190602001808311610ad957829003601f168201915b505050505081565b610b0661164f565b6001600160a01b0316610b176110e6565b6001600160a01b031614610b3d5760405162461bcd60e51b815260040161082b90612dae565b6010805460ff191693151593909317909255601155601255565b60085490565b60115481565b610b74610b6e61164f565b82611704565b610b905760405162461bcd60e51b815260040161082b90612f5e565b610a6b838383611781565b600c5460009061076a90836118ae565b6000610bb683610f46565b8210610bd45760405162461bcd60e51b815260040161082b90612985565b506001600160a01b03919091166000908152600660209081526040808320938352929052205490565b600b5481565b610a6b83838360405180602001604052806000815250611269565b60606000610c2b83610f46565b905060008167ffffffffffffffff811115610c5657634e487b7160e01b600052604160045260246000fd5b604051908082528060200260200182016040528015610c7f578160200160208202803683370190505b50905060005b82811015610cd457610c978582610bab565b828281518110610cb757634e487b7160e01b600052603260045260246000fd5b602090810291909101015280610ccc8161313d565b915050610c85565b509392505050565b6000610ce6610b57565b8210610d045760405162461bcd60e51b815260040161082b90612faf565b60088281548110610d2557634e487b7160e01b600052603260045260246000fd5b90600052602060002001549050919050565b610d3f61164f565b6001600160a01b0316610d506110e6565b6001600160a01b031614610d765760405162461bcd60e51b815260040161082b90612dae565b8051610d8990600f9060208401906122b0565b5050565b6000610d99600e6118ba565b905090565b6000818152600260205260408120546001600160a01b03168061076a5760405162461bcd60e51b815260040161082b90612ca2565b610ddb61164f565b6001600160a01b0316610dec6110e6565b6001600160a01b031614610e125760405162461bcd60e51b815260040161082b90612dae565b600080610e1d610d8d565b905060005b8451811015610e7257838181518110610e4b57634e487b7160e01b600052603260045260246000fd5b602002602001015183610e5e9190613074565b925080610e6a8161313d565b915050610e22565b50600b54610e808383613074565b1115610e9e5760405162461bcd60e51b815260040161082b90612b5c565b60005b8451811015610f3f5760005b848281518110610ecd57634e487b7160e01b600052603260045260246000fd5b6020026020010151811015610f2c5782610ee68161313d565b935050610f1a868381518110610f0c57634e487b7160e01b600052603260045260246000fd5b602002602001015184611653565b80610f248161313d565b915050610ead565b5080610f378161313d565b915050610ea1565b5050505050565b60006001600160a01b038216610f6e5760405162461bcd60e51b815260040161082b90612c58565b506001600160a01b031660009081526003602052604090205490565b610f9261164f565b6001600160a01b0316610fa36110e6565b6001600160a01b031614610fc95760405162461bcd60e51b815260040161082b90612dae565b610fd360006118be565b565b6000908152600260205260409020546001600160a01b031690565b610ff861164f565b6001600160a01b03166110096110e6565b6001600160a01b03161461102f5760405162461bcd60e51b815260040161082b90612dae565b478061103a57600080fd5b61106d7343bdbfbe9e16d667babfe73bc7c95bfae2ca083c61106860646110628560336118ae565b90611910565b61191c565b61108b7354ffb54dbae454d2385f25e5726a7931a7dd44444761191c565b50565b61109661164f565b6001600160a01b03166110a76110e6565b6001600160a01b0316146110cd5760405162461bcd60e51b815260040161082b90612dae565b8051610d899060139060208401906122b0565b600c5481565b600a546001600160a01b031690565b6110fd61164f565b6001600160a01b031661110e6110e6565b6001600160a01b0316146111345760405162461bcd60e51b815260040161082b90612dae565b600c8190556040517f0e4af3870af723022c49a1ebcf7379a14fa7732c2dc92925407b8d219116a26b9061116990839061301d565b60405180910390a150565b60606001805461078190613102565b61118b61164f565b6001600160a01b0316826001600160a01b031614156111bc5760405162461bcd60e51b815260040161082b90612ae3565b80600560006111c961164f565b6001600160a01b03908116825260208083019390935260409182016000908120918716808252919093529120805460ff19169215159290921790915561120d61164f565b6001600160a01b03167f17307eab39ab6107e8899845ad3d59bd9653f200f220920489ca2b5937696c318360405161124591906128db565b60405180910390a35050565b7343bdbfbe9e16d667babfe73bc7c95bfae2ca083c81565b61127a61127461164f565b83611704565b6112965760405162461bcd60e51b815260040161082b90612f5e565b6112a284848484611998565b50505050565b6112b061164f565b6001600160a01b03166112c16110e6565b6001600160a01b0316146112e75760405162461bcd60e51b815260040161082b90612dae565b600b8190556040517fc83d13efd20405bd69a6e26fd71d067b31246b9fe9ad2b945536dd1770330d489061116990839061301d565b60105460ff1681565b61132d61164f565b6001600160a01b031661133e6110e6565b6001600160a01b0316146113645760405162461bcd60e51b815260040161082b90612dae565b600d805460ff191682151517908190556040517f10e1c3fcaff06b68391033547e8f9bb8067d7c4a2e32659b0629153814d242d3916111699160ff909116906128db565b600181565b60125481565b60606113be82611632565b6113da5760405162461bcd60e51b815260040161082b90612e2c565b60105460ff161580156113ef57506011548210155b80156113fd57506012548211155b15611494576013805461140f90613102565b80601f016020809104026020016040519081016040528092919081815260200182805461143b90613102565b80156114885780601f1061145d57610100808354040283529160200191611488565b820191906000526020600020905b81548152906001019060200180831161146b57829003601f168201915b5050505050905061076d565b600061149e6119cb565b905060008151116114be57604051806020016040528060008152506114e9565b806114c8846119da565b6040516020016114d99291906127f3565b6040516020818303038152906040525b9392505050565b7354ffb54dbae454d2385f25e5726a7931a7dd444481565b600f8054610a7d90613102565b6001600160a01b03918216600090815260056020908152604080832093909416825291909152205460ff1690565b600061157985858560405160200161155d93929190612876565b6040516020818303038152906040528051906020012083611af5565b90505b949350505050565b61158c61164f565b6001600160a01b031661159d6110e6565b6001600160a01b0316146115c35760405162461bcd60e51b815260040161082b90612dae565b6001600160a01b0381166115e95760405162461bcd60e51b815260040161082b90612a22565b61108b816118be565b60006001600160e01b031982166380ac58cd60e01b148061162357506001600160e01b03198216635b5e139f60e01b145b8061076a575061076a82611b11565b6000908152600260205260409020546001600160a01b0316151590565b3390565b61165d600e611b2a565b6116678282611b33565b60405181907f82d7607685ecd2fbf22f775074b38351f7b615e0f8eacdfd36daa2cec65d2ccd90600090a25050565b600081815260046020526040902080546001600160a01b0319166001600160a01b03841690811790915581906116cb82610d9e565b6001600160a01b03167f8c5be1e5ebec7d5bd14f71427d1e84f3dd0314c0f7b2291e5b200ac8c7c3b92560405160405180910390a45050565b600061170f82611632565b61172b5760405162461bcd60e51b815260040161082b90612b7f565b600061173683610d9e565b9050806001600160a01b0316846001600160a01b031614806117715750836001600160a01b031661176684610804565b6001600160a01b0316145b8061157c575061157c8185611515565b826001600160a01b031661179482610d9e565b6001600160a01b0316146117ba5760405162461bcd60e51b815260040161082b90612de3565b6001600160a01b0382166117e05760405162461bcd60e51b815260040161082b90612a9f565b6117eb838383611b4d565b6117f6600082611696565b6001600160a01b038316600090815260036020526040812080546001929061181f9084906130bf565b90915550506001600160a01b038216600090815260036020526040812080546001929061184d908490613074565b909155505060008181526002602052604080822080546001600160a01b0319166001600160a01b0386811691821790925591518493918716917fddf252ad1be2c89b69c2b068fc378daa952ba7f163c4a11628f55a4df523b3ef91a4505050565b60006114e982846130a0565b5490565b600a80546001600160a01b038381166001600160a01b0319831681179093556040519116919082907f8be0079c531659141344cd1fd0a4f28419497f9722a3daafe3b4186f6b6457e090600090a35050565b60006114e9828461308c565b6000826001600160a01b03168260405161193590612822565b60006040518083038185875af1925050503d8060008114611972576040519150601f19603f3d011682016040523d82523d6000602084013e611977565b606091505b5050905080610a6b5760405162461bcd60e51b815260040161082b90612f34565b6119a3848484611781565b6119af84848484611bd6565b6112a25760405162461bcd60e51b815260040161082b906129d0565b6060600f805461078190613102565b6060816119ff57506040805180820190915260018152600360fc1b602082015261076d565b8160005b8115611a295780611a138161313d565b9150611a229050600a8361308c565b9150611a03565b60008167ffffffffffffffff811115611a5257634e487b7160e01b600052604160045260246000fd5b6040519080825280601f01601f191660200182016040528015611a7c576020820181803683370190505b5090505b841561157c57611a916001836130bf565b9150611a9e600a86613178565b611aa9906030613074565b60f81b818381518110611acc57634e487b7160e01b600052603260045260246000fd5b60200101906001600160f81b031916908160001a905350611aee600a8661308c565b9450611a80565b6000806000611b048585611cee565b91509150610cd481611d5e565b6001600160e01b031981166301ffc9a760e01b14919050565b80546001019055565b610d89828260405180602001604052806000815250611e8b565b611b58838383610a6b565b6001600160a01b038316611b7457611b6f81611ebe565b611b97565b816001600160a01b0316836001600160a01b031614611b9757611b978382611f02565b6001600160a01b038216611bb357611bae81611f9f565b610a6b565b826001600160a01b0316826001600160a01b031614610a6b57610a6b8282612078565b6000611bea846001600160a01b03166120bc565b15611ce657836001600160a01b031663150b7a02611c0661164f565b8786866040518563ffffffff1660e01b8152600401611c289493929190612839565b602060405180830381600087803b158015611c4257600080fd5b505af1925050508015611c72575060408051601f3d908101601f19168201909252611c6f918101906126ff565b60015b611ccc573d808015611ca0576040519150601f19603f3d011682016040523d82523d6000602084013e611ca5565b606091505b508051611cc45760405162461bcd60e51b815260040161082b906129d0565b805181602001fd5b6001600160e01b031916630a85bd0160e11b14905061157c565b50600161157c565b600080825160411415611d255760208301516040840151606085015160001a611d19878285856120c2565b94509450505050611d57565b825160401415611d4f5760208301516040840151611d448683836121a2565b935093505050611d57565b506000905060025b9250929050565b6000816004811115611d8057634e487b7160e01b600052602160045260246000fd5b1415611d8b5761108b565b6001816004811115611dad57634e487b7160e01b600052602160045260246000fd5b1415611dcb5760405162461bcd60e51b815260040161082b90612917565b6002816004811115611ded57634e487b7160e01b600052602160045260246000fd5b1415611e0b5760405162461bcd60e51b815260040161082b9061294e565b6003816004811115611e2d57634e487b7160e01b600052602160045260246000fd5b1415611e4b5760405162461bcd60e51b815260040161082b90612b1a565b6004816004811115611e6d57634e487b7160e01b600052602160045260246000fd5b141561108b5760405162461bcd60e51b815260040161082b90612ceb565b611e9583836121d1565b611ea26000848484611bd6565b610a6b5760405162461bcd60e51b815260040161082b906129d0565b600880546000838152600960205260408120829055600182018355919091527ff3f7a9fe364faab93b216da50a3214154f22a0a2b415b23a84c8169e8b636ee30155565b60006001611f0f84610f46565b611f1991906130bf565b600083815260076020526040902054909150808214611f6c576001600160a01b03841660009081526006602090815260408083208584528252808320548484528184208190558352600790915290208190555b5060009182526007602090815260408084208490556001600160a01b039094168352600681528383209183525290812055565b600854600090611fb1906001906130bf565b60008381526009602052604081205460088054939450909284908110611fe757634e487b7160e01b600052603260045260246000fd5b90600052602060002001549050806008838154811061201657634e487b7160e01b600052603260045260246000fd5b600091825260208083209091019290925582815260099091526040808220849055858252812055600880548061205c57634e487b7160e01b600052603160045260246000fd5b6001900381819060005260206000200160009055905550505050565b600061208383610f46565b6001600160a01b039093166000908152600660209081526040808320868452825280832085905593825260079052919091209190915550565b3b151590565b6000807f7fffffffffffffffffffffffffffffff5d576e7357a4501ddfe92f46681b20a08311156120f95750600090506003612199565b8460ff16601b1415801561211157508460ff16601c14155b156121225750600090506004612199565b60006001878787876040516000815260200160405260405161214794939291906128e6565b6020604051602081039080840390855afa158015612169573d6000803e3d6000fd5b5050604051601f1901519150506001600160a01b03811661219257600060019250925050612199565b9150600090505b94509492505050565b6000806001600160ff1b03831660ff84901c601b016121c3878288856120c2565b935093505050935093915050565b6001600160a01b0382166121f75760405162461bcd60e51b815260040161082b90612d2d565b61220081611632565b1561221d5760405162461bcd60e51b815260040161082b90612a68565b61222960008383611b4d565b6001600160a01b0382166000908152600360205260408120805460019290612252908490613074565b909155505060008181526002602052604080822080546001600160a01b0319166001600160a01b03861690811790915590518392907fddf252ad1be2c89b69c2b068fc378daa952ba7f163c4a11628f55a4df523b3ef908290a45050565b8280546122bc90613102565b90600052602060002090601f0160209004810192826122de5760008555612324565b82601f106122f757805160ff1916838001178555612324565b82800160010185558215612324579182015b82811115612324578251825591602001919060010190612309565b50612330929150612334565b5090565b5b808211156123305760008155600101612335565b600067ffffffffffffffff831115612363576123636131b8565b612376601f8401601f1916602001613026565b905082815283838301111561238a57600080fd5b828260208301376000602084830101529392505050565b80356001600160a01b038116811461076d57600080fd5b600082601f8301126123c8578081fd5b813560206123dd6123d883613050565b613026565b82815281810190858301838502870184018810156123f9578586fd5b855b85811015612417578135845292840192908401906001016123fb565b5090979650505050505050565b8035801515811461076d57600080fd5b600082601f830112612444578081fd5b6114e983833560208501612349565b600060208284031215612464578081fd5b6114e9826123a1565b6000806040838503121561247f578081fd5b612488836123a1565b9150612496602084016123a1565b90509250929050565b6000806000606084860312156124b3578081fd5b6124bc846123a1565b92506124ca602085016123a1565b9150604084013590509250925092565b600080600080608085870312156124ef578081fd5b6124f8856123a1565b9350612506602086016123a1565b925060408501359150606085013567ffffffffffffffff811115612528578182fd5b61253487828801612434565b91505092959194509250565b60008060408385031215612552578182fd5b61255b836123a1565b915061249660208401612424565b6000806040838503121561257b578182fd5b612584836123a1565b946020939093013593505050565b600080600080608085870312156125a7578384fd5b6125b0856123a1565b93506020850135925060408501359150606085013567ffffffffffffffff811115612528578182fd5b600080604083850312156125eb578182fd5b823567ffffffffffffffff80821115612602578384fd5b818501915085601f830112612615578384fd5b813560206126256123d883613050565b82815281810190858301838502870184018b1015612641578889fd5b8896505b8487101561266a57612656816123a1565b835260019690960195918301918301612645565b5096505086013592505080821115612680578283fd5b5061268d858286016123b8565b9150509250929050565b6000602082840312156126a8578081fd5b6114e982612424565b6000806000606084860312156126c5578081fd5b6126ce84612424565b95602085013595506040909401359392505050565b6000602082840312156126f4578081fd5b81356114e9816131ce565b600060208284031215612710578081fd5b81516114e9816131ce565b60006020828403121561272c578081fd5b813567ffffffffffffffff811115612742578182fd5b8201601f81018413612752578182fd5b61157c84823560208401612349565b600060208284031215612772578081fd5b5035919050565b60008060006060848603121561278d578081fd5b8335925060208401359150604084013567ffffffffffffffff8111156127b1578182fd5b6127bd86828701612434565b9150509250925092565b600081518084526127df8160208601602086016130d6565b601f01601f19169290920160200192915050565b600083516128058184602088016130d6565b8351908301906128198183602088016130d6565b01949350505050565b90565b6001600160a01b0391909116815260200190565b6001600160a01b038581168252841660208201526040810183905260806060820181905260009061286c908301846127c7565b9695505050505050565b6001600160a01b039390931683526020830191909152604082015260600190565b6020808252825182820181905260009190848201906040850190845b818110156128cf578351835292840192918401916001016128b3565b50909695505050505050565b901515815260200190565b93845260ff9290921660208401526040830152606082015260800190565b6000602082526114e960208301846127c7565b60208082526018908201527f45434453413a20696e76616c6964207369676e61747572650000000000000000604082015260600190565b6020808252601f908201527f45434453413a20696e76616c6964207369676e6174757265206c656e67746800604082015260600190565b6020808252602b908201527f455243373231456e756d657261626c653a206f776e657220696e646578206f7560408201526a74206f6620626f756e647360a81b606082015260800190565b60208082526032908201527f4552433732313a207472616e7366657220746f206e6f6e20455243373231526560408201527131b2b4bb32b91034b6b83632b6b2b73a32b960711b606082015260800190565b60208082526026908201527f4f776e61626c653a206e6577206f776e657220697320746865207a65726f206160408201526564647265737360d01b606082015260800190565b6020808252601c908201527f4552433732313a20746f6b656e20616c7265616479206d696e74656400000000604082015260600190565b60208082526024908201527f4552433732313a207472616e7366657220746f20746865207a65726f206164646040820152637265737360e01b606082015260800190565b60208082526019908201527f4552433732313a20617070726f766520746f2063616c6c657200000000000000604082015260600190565b60208082526022908201527f45434453413a20696e76616c6964207369676e6174757265202773272076616c604082015261756560f01b606082015260800190565b60208082526009908201526813585e081b1a5b5a5d60ba1b604082015260600190565b6020808252602c908201527f4552433732313a206f70657261746f7220717565727920666f72206e6f6e657860408201526b34b9ba32b73a103a37b5b2b760a11b606082015260800190565b602080825260169082015275139bdd08185d5d1a1bdc9a5e9959081d1bc81b5a5b9d60521b604082015260600190565b60208082526038908201527f4552433732313a20617070726f76652063616c6c6572206973206e6f74206f7760408201527f6e6572206e6f7220617070726f76656420666f7220616c6c0000000000000000606082015260800190565b6020808252602a908201527f4552433732313a2062616c616e636520717565727920666f7220746865207a65604082015269726f206164647265737360b01b606082015260800190565b60208082526029908201527f4552433732313a206f776e657220717565727920666f72206e6f6e657869737460408201526832b73a103a37b5b2b760b91b606082015260800190565b60208082526022908201527f45434453413a20696e76616c6964207369676e6174757265202776272076616c604082015261756560f01b606082015260800190565b6020808252818101527f4552433732313a206d696e7420746f20746865207a65726f2061646472657373604082015260600190565b6020808252602c908201527f4552433732313a20617070726f76656420717565727920666f72206e6f6e657860408201526b34b9ba32b73a103a37b5b2b760a11b606082015260800190565b6020808252818101527f4f776e61626c653a2063616c6c6572206973206e6f7420746865206f776e6572604082015260600190565b60208082526029908201527f4552433732313a207472616e73666572206f6620746f6b656e2074686174206960408201526839903737ba1037bbb760b91b606082015260800190565b6020808252602f908201527f4552433732314d657461646174613a2055524920717565727920666f72206e6f60408201526e3732bc34b9ba32b73a103a37b5b2b760891b606082015260800190565b60208082526011908201527056616c75652062656c6f7720707269636560781b604082015260600190565b60208082526021908201527f4552433732313a20617070726f76616c20746f2063757272656e74206f776e656040820152603960f91b606082015260800190565b6020808252600e908201526d29b0b632b9903737ba1037b832b760911b604082015260600190565b6020808252600b908201526a4f7574206f662074696d6560a81b604082015260600190565b60208082526010908201526f2a3930b739b332b9103330b4b632b21760811b604082015260600190565b60208082526031908201527f4552433732313a207472616e736665722063616c6c6572206973206e6f74206f6040820152701ddb995c881b9bdc88185c1c1c9bdd9959607a1b606082015260800190565b6020808252602c908201527f455243373231456e756d657261626c653a20676c6f62616c20696e646578206f60408201526b7574206f6620626f756e647360a01b606082015260800190565b602080825260089082015267536f6c646f75742160c01b604082015260600190565b90815260200190565b60405181810167ffffffffffffffff81118282101715613048576130486131b8565b604052919050565b600067ffffffffffffffff82111561306a5761306a6131b8565b5060209081020190565b600082198211156130875761308761318c565b500190565b60008261309b5761309b6131a2565b500490565b60008160001904831182151516156130ba576130ba61318c565b500290565b6000828210156130d1576130d161318c565b500390565b60005b838110156130f15781810151838201526020016130d9565b838111156112a25750506000910152565b60028104600182168061311657607f821691505b6020821081141561313757634e487b7160e01b600052602260045260246000fd5b50919050565b60006000198214156131515761315161318c565b5060010190565b600060ff821660ff81141561316f5761316f61318c565b60010192915050565b600082613187576131876131a2565b500690565b634e487b7160e01b600052601160045260246000fd5b634e487b7160e01b600052601260045260246000fd5b634e487b7160e01b600052604160045260246000fd5b6001600160e01b03198116811461108b57600080fdfea264697066735822122007f37d32ea7d7170a14766f58547e27b095d9df71bebeca1113a5870ad2c479364736f6c63430008000033",
    "immutableReferences": {},
    "source": "// SPDX-License-Identifier: MIT\r\npragma solidity ^0.8.0;\r\n\r\nimport \"./ERC721Enumerable.sol\";\r\nimport \"@openzeppelin/contracts/access/Ownable.sol\";\r\nimport \"@openzeppelin/contracts/utils/math/SafeMath.sol\";\r\nimport \"@openzeppelin/contracts/utils/Counters.sol\";\r\nimport \"@openzeppelin/contracts/utils/cryptography/ECDSA.sol\";\r\n\r\n// @author: olive\r\n\r\n/////////////////////////////////////////////////////////////////////////////////////////\r\n/////////////////////////////////////////////////////////////////////////////////////////\r\n//                                                                                    ///\r\n//                                                                                    ///\r\n//                                                                                    ///\r\n//                                                                                    ///\r\n//                                                                                    ///\r\n//                                                                                    ///\r\n//                                                                                    ///\r\n//               @@       @@               @@ @                @@@@@@@@@@@            ///\r\n//              @@@@    @@@@            @@    @@               @@@@@@@@@@@            ///\r\n//             @@ @@  @@  @@            @@     @@                                     ///\r\n//            @@  @@ @@   @@              @@ @ @@              @@@@@@@@@@@            ///\r\n//           @@    @@     @@                   @@              @@@@@@@@@@@            ///\r\n//          @@     @      @@                   @@                                     ///\r\n//         @@             @@                  @@               @@@@@@@@@@@            ///\r\n//        @@              @@             @@@@@                 @@@@@@@@@@@            ///\r\n//                                                                                    ///\r\n//                                                                                    ///\r\n//                                                                                    ///\r\n//                                                                                    ///\r\n//                                                                                    ///\r\n//                                                                                    ///\r\n//                                                                                    ///\r\n/////////////////////////////////////////////////////////////////////////////////////////\r\n/////////////////////////////////////////////////////////////////////////////////////////\r\n\r\ncontract M9E is ERC721Enumerable, Ownable {\r\n    using SafeMath for uint256;\r\n    using Counters for Counters.Counter;\r\n    using Strings for uint256;\r\n\r\n    uint256 public MAX_ELEMENTS = 999;\r\n    uint256 public PRICE = 0.09 ether;\r\n    uint256 public constant START_AT = 1;\r\n\r\n    bool private PAUSE = true;\r\n\r\n    Counters.Counter private _tokenIdTracker;\r\n\r\n    string public baseTokenURI;\r\n\r\n    bool public META_REVEAL = false;\r\n    uint256 public HIDE_FROM = 1;\r\n    uint256 public HIDE_TO = 999;\r\n    string public sampleTokenURI;\r\n\r\n    address public constant creator1Address = 0x54fFb54DbAe454d2385f25e5726A7931A7dD4444;\r\n    address public constant creator2Address = 0x43bdBFBE9E16D667baBfe73Bc7C95BFAE2CA083C;\r\n\r\n    event PauseEvent(bool pause);\r\n    event welcomeToM9E(uint256 indexed id);\r\n    event NewPriceEvent(uint256 price);\r\n    event NewMaxElement(uint256 max);\r\n\r\n    constructor(string memory baseURI) ERC721(\"Master9Eyes\", \"M9E\"){\r\n        setBaseURI(baseURI);\r\n    }\r\n\r\n    modifier saleIsOpen {\r\n        require(totalToken() <= MAX_ELEMENTS, \"Soldout!\");\r\n        require(!PAUSE, \"Sales not open\");\r\n        _;\r\n    }\r\n\r\n    function _baseURI() internal view virtual override returns (string memory) {\r\n        return baseTokenURI;\r\n    }\r\n\r\n    function setBaseURI(string memory baseURI) public onlyOwner {\r\n        baseTokenURI = baseURI;\r\n    }\r\n\r\n    function setSampleURI(string memory sampleURI) public onlyOwner {\r\n        sampleTokenURI = sampleURI;\r\n    }\r\n\r\n    function totalToken() public view returns (uint256) {\r\n        return _tokenIdTracker.current();\r\n    }\r\n\r\n    function tokenURI(uint256 tokenId) public view virtual override returns (string memory) {\r\n        require(_exists(tokenId), \"ERC721Metadata: URI query for nonexistent token\");\r\n\r\n        if(!META_REVEAL && tokenId >= HIDE_FROM && tokenId <= HIDE_TO) \r\n            return sampleTokenURI;\r\n        \r\n        string memory baseURI = _baseURI();\r\n        return bytes(baseURI).length > 0 ? string(abi.encodePacked(baseURI, tokenId.toString())) : \"\";\r\n    }\r\n\r\n    function mint(uint256 _tokenAmount, uint256 _timestamp, bytes memory _signature) public payable saleIsOpen {\r\n\r\n        uint256 total = totalToken();\r\n        require(_tokenAmount <= 3, \"Max limit\");\r\n        require(total + _tokenAmount <= MAX_ELEMENTS, \"Max limit\");\r\n        require(msg.value >= price(_tokenAmount), \"Value below price\");\r\n\r\n        address wallet = _msgSender();\r\n\r\n        address signerOwner = signatureWallet(wallet,_tokenAmount,_timestamp,_signature);\r\n        require(signerOwner == owner(), \"Not authorized to mint\");\r\n\r\n        require(block.timestamp >= _timestamp - 30, \"Out of time\");\r\n\r\n        for(uint8 i = 1; i <= _tokenAmount; i++){\r\n            _mintAnElement(wallet, total + i);\r\n        }\r\n\r\n    }\r\n\r\n    function signatureWallet(address wallet, uint256 _tokenAmount, uint256 _timestamp, bytes memory _signature) public pure returns (address){\r\n\r\n        return ECDSA.recover(keccak256(abi.encode(wallet, _tokenAmount, _timestamp)), _signature);\r\n\r\n    }\r\n\r\n    function _mintAnElement(address _to, uint256 _tokenId) private {\r\n\r\n        _tokenIdTracker.increment();\r\n        _safeMint(_to, _tokenId);\r\n\r\n        emit welcomeToM9E(_tokenId);\r\n    }\r\n\r\n    function price(uint256 _count) public view returns (uint256) {\r\n        return PRICE.mul(_count);\r\n    }\r\n\r\n    function walletOfOwner(address _owner) external view returns (uint256[] memory) {\r\n        uint256 tokenCount = balanceOf(_owner);\r\n\r\n        uint256[] memory tokensId = new uint256[](tokenCount);\r\n        for (uint256 i = 0; i < tokenCount; i++) {\r\n            tokensId[i] = tokenOfOwnerByIndex(_owner, i);\r\n        }\r\n\r\n        return tokensId;\r\n    }\r\n\r\n    function setPause(bool _pause) public onlyOwner{\r\n        PAUSE = _pause;\r\n        emit PauseEvent(PAUSE);\r\n    }\r\n\r\n    function setPrice(uint256 _price) public onlyOwner{\r\n        PRICE = _price;\r\n        emit NewPriceEvent(PRICE);\r\n    }\r\n\r\n    function setMaxElement(uint256 _max) public onlyOwner{\r\n        MAX_ELEMENTS = _max;\r\n        emit NewMaxElement(MAX_ELEMENTS);\r\n    }\r\n\r\n    function setMetaReveal(bool _reveal, uint256 _from, uint256 _to) public onlyOwner{\r\n        META_REVEAL = _reveal;\r\n        HIDE_FROM = _from;\r\n        HIDE_TO = _to;\r\n    }\r\n\r\n    function withdrawAll() public onlyOwner {\r\n        uint256 balance = address(this).balance;\r\n        require(balance > 0);\r\n        _widthdraw(creator2Address, balance.mul(51).div(100));\r\n        _widthdraw(creator1Address, address(this).balance);\r\n    }\r\n\r\n    function _widthdraw(address _address, uint256 _amount) private {\r\n        (bool success, ) = _address.call{value: _amount}(\"\");\r\n        require(success, \"Transfer failed.\");\r\n    }\r\n\r\n    function giftMint(address[] memory _addrs, uint[] memory _tokenAmounts) public onlyOwner {\r\n        uint totalQuantity = 0;\r\n        uint256 total = totalToken();\r\n        for(uint i = 0; i < _addrs.length; i ++) {\r\n            totalQuantity += _tokenAmounts[i];\r\n        }\r\n        require( total + totalQuantity <= MAX_ELEMENTS, \"Max limit\" );\r\n        for(uint i = 0; i < _addrs.length; i ++){\r\n            for(uint j = 0; j < _tokenAmounts[i]; j ++){\r\n                total ++;\r\n                _mintAnElement(_addrs[i], total);\r\n            }\r\n        }\r\n    }\r\n}",
    "sourcePath": "E:\\project\\m9eNFT\\contracts\\M9E.sol",
    "compiler": {
        "name": "solc",
        "version": "0.8.0+commit.c7dfd78e.Emscripten.clang"
    },
    "schemaVersion": "3.4.3",
    "updatedAt": "2021-12-09T04:21:33.536Z",
    "networkType": "ethereum",
    "devdoc": {
        "kind": "dev",
        "methods": {
            "approve(address,uint256)": {
                "details": "See {IERC721-approve}."
            },
            "balanceOf(address)": {
                "details": "See {IERC721-balanceOf}."
            },
            "getApproved(uint256)": {
                "details": "See {IERC721-getApproved}."
            },
            "isApprovedForAll(address,address)": {
                "details": "See {IERC721-isApprovedForAll}."
            },
            "name()": {
                "details": "See {IERC721Metadata-name}."
            },
            "owner()": {
                "details": "Returns the address of the current owner."
            },
            "ownerOf(uint256)": {
                "details": "See {IERC721-ownerOf}."
            },
            "rawOwnerOf(uint256)": {
                "details": "Edit for rawOwnerOf token"
            },
            "renounceOwnership()": {
                "details": "Leaves the contract without owner. It will not be possible to call `onlyOwner` functions anymore. Can only be called by the current owner. NOTE: Renouncing ownership will leave the contract without an owner, thereby removing any functionality that is only available to the owner."
            },
            "safeTransferFrom(address,address,uint256)": {
                "details": "See {IERC721-safeTransferFrom}."
            },
            "safeTransferFrom(address,address,uint256,bytes)": {
                "details": "See {IERC721-safeTransferFrom}."
            },
            "setApprovalForAll(address,bool)": {
                "details": "See {IERC721-setApprovalForAll}."
            },
            "supportsInterface(bytes4)": {
                "details": "See {IERC165-supportsInterface}."
            },
            "symbol()": {
                "details": "See {IERC721Metadata-symbol}."
            },
            "tokenByIndex(uint256)": {
                "details": "See {IERC721Enumerable-tokenByIndex}."
            },
            "tokenOfOwnerByIndex(address,uint256)": {
                "details": "See {IERC721Enumerable-tokenOfOwnerByIndex}."
            },
            "tokenURI(uint256)": {
                "details": "See {IERC721Metadata-tokenURI}."
            },
            "totalSupply()": {
                "details": "See {IERC721Enumerable-totalSupply}."
            },
            "transferFrom(address,address,uint256)": {
                "details": "See {IERC721-transferFrom}."
            },
            "transferOwnership(address)": {
                "details": "Transfers ownership of the contract to a new account (`newOwner`). Can only be called by the current owner."
            }
        },
        "version": 1
    },
    "userdoc": {
        "kind": "user",
        "methods": {},
        "version": 1
    }
}