{
  "contractName": "PIXIU",
  "abi": [
    {
      "inputs": [
        {
          "internalType": "string",
          "name": "baseURI",
          "type": "string"
        }
      ],
      "stateMutability": "nonpayable",
      "type": "constructor"
    },
    {
      "anonymous": false,
      "inputs": [
        {
          "indexed": true,
          "internalType": "address",
          "name": "owner",
          "type": "address"
        },
        {
          "indexed": true,
          "internalType": "address",
          "name": "approved",
          "type": "address"
        },
        {
          "indexed": true,
          "internalType": "uint256",
          "name": "tokenId",
          "type": "uint256"
        }
      ],
      "name": "Approval",
      "type": "event"
    },
    {
      "anonymous": false,
      "inputs": [
        {
          "indexed": true,
          "internalType": "address",
          "name": "owner",
          "type": "address"
        },
        {
          "indexed": true,
          "internalType": "address",
          "name": "operator",
          "type": "address"
        },
        {
          "indexed": false,
          "internalType": "bool",
          "name": "approved",
          "type": "bool"
        }
      ],
      "name": "ApprovalForAll",
      "type": "event"
    },
    {
      "anonymous": false,
      "inputs": [
        {
          "indexed": false,
          "internalType": "uint256",
          "name": "price",
          "type": "uint256"
        }
      ],
      "name": "NewPriceEvent",
      "type": "event"
    },
    {
      "anonymous": false,
      "inputs": [
        {
          "indexed": true,
          "internalType": "address",
          "name": "previousOwner",
          "type": "address"
        },
        {
          "indexed": true,
          "internalType": "address",
          "name": "newOwner",
          "type": "address"
        }
      ],
      "name": "OwnershipTransferred",
      "type": "event"
    },
    {
      "anonymous": false,
      "inputs": [
        {
          "indexed": false,
          "internalType": "bool",
          "name": "pause",
          "type": "bool"
        }
      ],
      "name": "PauseEvent",
      "type": "event"
    },
    {
      "anonymous": false,
      "inputs": [
        {
          "indexed": true,
          "internalType": "address",
          "name": "from",
          "type": "address"
        },
        {
          "indexed": true,
          "internalType": "address",
          "name": "to",
          "type": "address"
        },
        {
          "indexed": true,
          "internalType": "uint256",
          "name": "tokenId",
          "type": "uint256"
        }
      ],
      "name": "Transfer",
      "type": "event"
    },
    {
      "anonymous": false,
      "inputs": [
        {
          "indexed": true,
          "internalType": "uint256",
          "name": "id",
          "type": "uint256"
        }
      ],
      "name": "welcomeToPIXIU",
      "type": "event"
    },
    {
      "inputs": [],
      "name": "HIDE_FROM",
      "outputs": [
        {
          "internalType": "uint256",
          "name": "",
          "type": "uint256"
        }
      ],
      "stateMutability": "view",
      "type": "function",
      "constant": true
    },
    {
      "inputs": [],
      "name": "HIDE_TO",
      "outputs": [
        {
          "internalType": "uint256",
          "name": "",
          "type": "uint256"
        }
      ],
      "stateMutability": "view",
      "type": "function",
      "constant": true
    },
    {
      "inputs": [],
      "name": "MAX_ELEMENTS",
      "outputs": [
        {
          "internalType": "uint256",
          "name": "",
          "type": "uint256"
        }
      ],
      "stateMutability": "view",
      "type": "function",
      "constant": true
    },
    {
      "inputs": [],
      "name": "META_REVEAL",
      "outputs": [
        {
          "internalType": "bool",
          "name": "",
          "type": "bool"
        }
      ],
      "stateMutability": "view",
      "type": "function",
      "constant": true
    },
    {
      "inputs": [],
      "name": "PRICE",
      "outputs": [
        {
          "internalType": "uint256",
          "name": "",
          "type": "uint256"
        }
      ],
      "stateMutability": "view",
      "type": "function",
      "constant": true
    },
    {
      "inputs": [
        {
          "internalType": "address",
          "name": "to",
          "type": "address"
        },
        {
          "internalType": "uint256",
          "name": "tokenId",
          "type": "uint256"
        }
      ],
      "name": "approve",
      "outputs": [],
      "stateMutability": "nonpayable",
      "type": "function"
    },
    {
      "inputs": [
        {
          "internalType": "address",
          "name": "owner",
          "type": "address"
        }
      ],
      "name": "balanceOf",
      "outputs": [
        {
          "internalType": "uint256",
          "name": "",
          "type": "uint256"
        }
      ],
      "stateMutability": "view",
      "type": "function",
      "constant": true
    },
    {
      "inputs": [],
      "name": "baseTokenURI",
      "outputs": [
        {
          "internalType": "string",
          "name": "",
          "type": "string"
        }
      ],
      "stateMutability": "view",
      "type": "function",
      "constant": true
    },
    {
      "inputs": [],
      "name": "depositaddress",
      "outputs": [
        {
          "internalType": "address",
          "name": "",
          "type": "address"
        }
      ],
      "stateMutability": "view",
      "type": "function",
      "constant": true
    },
    {
      "inputs": [
        {
          "internalType": "uint256",
          "name": "tokenId",
          "type": "uint256"
        }
      ],
      "name": "getApproved",
      "outputs": [
        {
          "internalType": "address",
          "name": "",
          "type": "address"
        }
      ],
      "stateMutability": "view",
      "type": "function",
      "constant": true
    },
    {
      "inputs": [
        {
          "internalType": "address",
          "name": "owner",
          "type": "address"
        },
        {
          "internalType": "address",
          "name": "operator",
          "type": "address"
        }
      ],
      "name": "isApprovedForAll",
      "outputs": [
        {
          "internalType": "bool",
          "name": "",
          "type": "bool"
        }
      ],
      "stateMutability": "view",
      "type": "function",
      "constant": true
    },
    {
      "inputs": [],
      "name": "name",
      "outputs": [
        {
          "internalType": "string",
          "name": "",
          "type": "string"
        }
      ],
      "stateMutability": "view",
      "type": "function",
      "constant": true
    },
    {
      "inputs": [],
      "name": "owner",
      "outputs": [
        {
          "internalType": "address",
          "name": "",
          "type": "address"
        }
      ],
      "stateMutability": "view",
      "type": "function",
      "constant": true
    },
    {
      "inputs": [
        {
          "internalType": "uint256",
          "name": "tokenId",
          "type": "uint256"
        }
      ],
      "name": "ownerOf",
      "outputs": [
        {
          "internalType": "address",
          "name": "",
          "type": "address"
        }
      ],
      "stateMutability": "view",
      "type": "function",
      "constant": true
    },
    {
      "inputs": [
        {
          "internalType": "uint256",
          "name": "tokenId",
          "type": "uint256"
        }
      ],
      "name": "rawOwnerOf",
      "outputs": [
        {
          "internalType": "address",
          "name": "",
          "type": "address"
        }
      ],
      "stateMutability": "view",
      "type": "function",
      "constant": true
    },
    {
      "inputs": [],
      "name": "renounceOwnership",
      "outputs": [],
      "stateMutability": "nonpayable",
      "type": "function"
    },
    {
      "inputs": [
        {
          "internalType": "address",
          "name": "from",
          "type": "address"
        },
        {
          "internalType": "address",
          "name": "to",
          "type": "address"
        },
        {
          "internalType": "uint256",
          "name": "tokenId",
          "type": "uint256"
        }
      ],
      "name": "safeTransferFrom",
      "outputs": [],
      "stateMutability": "nonpayable",
      "type": "function"
    },
    {
      "inputs": [
        {
          "internalType": "address",
          "name": "from",
          "type": "address"
        },
        {
          "internalType": "address",
          "name": "to",
          "type": "address"
        },
        {
          "internalType": "uint256",
          "name": "tokenId",
          "type": "uint256"
        },
        {
          "internalType": "bytes",
          "name": "_data",
          "type": "bytes"
        }
      ],
      "name": "safeTransferFrom",
      "outputs": [],
      "stateMutability": "nonpayable",
      "type": "function"
    },
    {
      "inputs": [],
      "name": "sampleTokenURI",
      "outputs": [
        {
          "internalType": "string",
          "name": "",
          "type": "string"
        }
      ],
      "stateMutability": "view",
      "type": "function",
      "constant": true
    },
    {
      "inputs": [
        {
          "internalType": "address",
          "name": "operator",
          "type": "address"
        },
        {
          "internalType": "bool",
          "name": "approved",
          "type": "bool"
        }
      ],
      "name": "setApprovalForAll",
      "outputs": [],
      "stateMutability": "nonpayable",
      "type": "function"
    },
    {
      "inputs": [
        {
          "internalType": "bytes4",
          "name": "interfaceId",
          "type": "bytes4"
        }
      ],
      "name": "supportsInterface",
      "outputs": [
        {
          "internalType": "bool",
          "name": "",
          "type": "bool"
        }
      ],
      "stateMutability": "view",
      "type": "function",
      "constant": true
    },
    {
      "inputs": [],
      "name": "symbol",
      "outputs": [
        {
          "internalType": "string",
          "name": "",
          "type": "string"
        }
      ],
      "stateMutability": "view",
      "type": "function",
      "constant": true
    },
    {
      "inputs": [
        {
          "internalType": "uint256",
          "name": "index",
          "type": "uint256"
        }
      ],
      "name": "tokenByIndex",
      "outputs": [
        {
          "internalType": "uint256",
          "name": "",
          "type": "uint256"
        }
      ],
      "stateMutability": "view",
      "type": "function",
      "constant": true
    },
    {
      "inputs": [
        {
          "internalType": "address",
          "name": "owner",
          "type": "address"
        },
        {
          "internalType": "uint256",
          "name": "index",
          "type": "uint256"
        }
      ],
      "name": "tokenOfOwnerByIndex",
      "outputs": [
        {
          "internalType": "uint256",
          "name": "",
          "type": "uint256"
        }
      ],
      "stateMutability": "view",
      "type": "function",
      "constant": true
    },
    {
      "inputs": [],
      "name": "totalSupply",
      "outputs": [
        {
          "internalType": "uint256",
          "name": "",
          "type": "uint256"
        }
      ],
      "stateMutability": "view",
      "type": "function",
      "constant": true
    },
    {
      "inputs": [
        {
          "internalType": "address",
          "name": "from",
          "type": "address"
        },
        {
          "internalType": "address",
          "name": "to",
          "type": "address"
        },
        {
          "internalType": "uint256",
          "name": "tokenId",
          "type": "uint256"
        }
      ],
      "name": "transferFrom",
      "outputs": [],
      "stateMutability": "nonpayable",
      "type": "function"
    },
    {
      "inputs": [
        {
          "internalType": "address",
          "name": "newOwner",
          "type": "address"
        }
      ],
      "name": "transferOwnership",
      "outputs": [],
      "stateMutability": "nonpayable",
      "type": "function"
    },
    {
      "inputs": [
        {
          "internalType": "string",
          "name": "baseURI",
          "type": "string"
        }
      ],
      "name": "setBaseURI",
      "outputs": [],
      "stateMutability": "nonpayable",
      "type": "function"
    },
    {
      "inputs": [
        {
          "internalType": "string",
          "name": "sampleURI",
          "type": "string"
        }
      ],
      "name": "setSampleURI",
      "outputs": [],
      "stateMutability": "nonpayable",
      "type": "function"
    },
    {
      "inputs": [],
      "name": "totalToken",
      "outputs": [
        {
          "internalType": "uint256",
          "name": "",
          "type": "uint256"
        }
      ],
      "stateMutability": "view",
      "type": "function",
      "constant": true
    },
    {
      "inputs": [
        {
          "internalType": "uint256",
          "name": "tokenId",
          "type": "uint256"
        }
      ],
      "name": "tokenURI",
      "outputs": [
        {
          "internalType": "string",
          "name": "",
          "type": "string"
        }
      ],
      "stateMutability": "view",
      "type": "function",
      "constant": true
    },
    {
      "inputs": [
        {
          "internalType": "uint256",
          "name": "_tokenAmount",
          "type": "uint256"
        }
      ],
      "name": "mint",
      "outputs": [],
      "stateMutability": "payable",
      "type": "function",
      "payable": true
    },
    {
      "inputs": [
        {
          "internalType": "address",
          "name": "wallet",
          "type": "address"
        },
        {
          "internalType": "uint256",
          "name": "_tokenAmount",
          "type": "uint256"
        },
        {
          "internalType": "uint256",
          "name": "_timestamp",
          "type": "uint256"
        },
        {
          "internalType": "bytes",
          "name": "_signature",
          "type": "bytes"
        }
      ],
      "name": "signatureWallet",
      "outputs": [],
      "stateMutability": "nonpayable",
      "type": "function"
    },
    {
      "inputs": [
        {
          "internalType": "uint256",
          "name": "_count",
          "type": "uint256"
        }
      ],
      "name": "price",
      "outputs": [
        {
          "internalType": "uint256",
          "name": "",
          "type": "uint256"
        }
      ],
      "stateMutability": "view",
      "type": "function",
      "constant": true
    },
    {
      "inputs": [
        {
          "internalType": "address",
          "name": "_owner",
          "type": "address"
        }
      ],
      "name": "walletOfOwner",
      "outputs": [
        {
          "internalType": "uint256[]",
          "name": "",
          "type": "uint256[]"
        }
      ],
      "stateMutability": "view",
      "type": "function",
      "constant": true
    },
    {
      "inputs": [
        {
          "internalType": "bool",
          "name": "_pause",
          "type": "bool"
        }
      ],
      "name": "setPause",
      "outputs": [],
      "stateMutability": "nonpayable",
      "type": "function"
    },
    {
      "inputs": [
        {
          "internalType": "uint256",
          "name": "_price",
          "type": "uint256"
        }
      ],
      "name": "setPrice",
      "outputs": [],
      "stateMutability": "nonpayable",
      "type": "function"
    },
    {
      "inputs": [
        {
          "internalType": "bool",
          "name": "_reveal",
          "type": "bool"
        },
        {
          "internalType": "uint256",
          "name": "_from",
          "type": "uint256"
        },
        {
          "internalType": "uint256",
          "name": "_to",
          "type": "uint256"
        }
      ],
      "name": "setMetaReveal",
      "outputs": [],
      "stateMutability": "nonpayable",
      "type": "function"
    },
    {
      "inputs": [],
      "name": "withdrawAll",
      "outputs": [],
      "stateMutability": "nonpayable",
      "type": "function"
    },
    {
      "inputs": [
        {
          "internalType": "address[]",
          "name": "_addrs",
          "type": "address[]"
        },
        {
          "internalType": "uint256[]",
          "name": "_tokenAmounts",
          "type": "uint256[]"
        }
      ],
      "name": "giftMint",
      "outputs": [],
      "stateMutability": "nonpayable",
      "type": "function"
    },
    {
      "inputs": [
        {
          "internalType": "uint256[]",
          "name": "_tokensId",
          "type": "uint256[]"
        }
      ],
      "name": "mintUnsoldTokens",
      "outputs": [],
      "stateMutability": "nonpayable",
      "type": "function"
    }
  ],
  "bytecode": "0x608060405266f8b0a10e470000600b556001600c60006101000a81548160ff0219169083151502179055506000600f60006101000a81548160ff02191690831515021790555060016010556122b86011553480156200005d57600080fd5b506040516200593b3803806200593b833981810160405281019062000083919062000420565b6040518060400160405280601081526020017f506978697520436f6c6c656374696f6e000000000000000000000000000000008152506040518060400160405280600281526020017f6b6b000000000000000000000000000000000000000000000000000000000000815250816000908051906020019062000107929190620002fe565b50806001908051906020019062000120929190620002fe565b50505062000143620001376200015b60201b60201c565b6200016360201b60201c565b62000154816200022960201b60201c565b506200060b565b600033905090565b6000600a60009054906101000a900473ffffffffffffffffffffffffffffffffffffffff16905081600a60006101000a81548173ffffffffffffffffffffffffffffffffffffffff021916908373ffffffffffffffffffffffffffffffffffffffff1602179055508173ffffffffffffffffffffffffffffffffffffffff168173ffffffffffffffffffffffffffffffffffffffff167f8be0079c531659141344cd1fd0a4f28419497f9722a3daafe3b4186f6b6457e060405160405180910390a35050565b620002396200015b60201b60201c565b73ffffffffffffffffffffffffffffffffffffffff166200025f620002d460201b60201c565b73ffffffffffffffffffffffffffffffffffffffff1614620002b8576040517f08c379a0000000000000000000000000000000000000000000000000000000008152600401620002af90620004a7565b60405180910390fd5b80600e9080519060200190620002d0929190620002fe565b5050565b6000600a60009054906101000a900473ffffffffffffffffffffffffffffffffffffffff16905090565b8280546200030c9062000577565b90600052602060002090601f0160209004810192826200033057600085556200037c565b82601f106200034b57805160ff19168380011785556200037c565b828001600101855582156200037c579182015b828111156200037b5782518255916020019190600101906200035e565b5b5090506200038b91906200038f565b5090565b5b80821115620003aa57600081600090555060010162000390565b5090565b6000620003c5620003bf84620004fd565b620004c9565b905082815260208101848484011115620003de57600080fd5b620003eb84828562000541565b509392505050565b600082601f8301126200040557600080fd5b815162000417848260208601620003ae565b91505092915050565b6000602082840312156200043357600080fd5b600082015167ffffffffffffffff8111156200044e57600080fd5b6200045c84828501620003f3565b91505092915050565b60006200047460208362000530565b91507f4f776e61626c653a2063616c6c6572206973206e6f7420746865206f776e65726000830152602082019050919050565b60006020820190508181036000830152620004c28162000465565b9050919050565b6000604051905081810181811067ffffffffffffffff82111715620004f357620004f2620005dc565b5b8060405250919050565b600067ffffffffffffffff8211156200051b576200051a620005dc565b5b601f19601f8301169050602081019050919050565b600082825260208201905092915050565b60005b838110156200056157808201518184015260208101905062000544565b8381111562000571576000848401525b50505050565b600060028204905060018216806200059057607f821691505b60208210811415620005a757620005a6620005ad565b5b50919050565b7f4e487b7100000000000000000000000000000000000000000000000000000000600052602260045260246000fd5b7f4e487b7100000000000000000000000000000000000000000000000000000000600052604160045260246000fd5b615320806200061b6000396000f3fe6080604052600436106102465760003560e01c806370a0823111610139578063a22cb465116100b6578063c74270931161007a578063c74270931461087f578063c87b56dd146108aa578063d547cfb7146108e7578063e985e9c514610912578063f23205681461094f578063f2fde38b1461097857610246565b8063a22cb465146107b0578063b2992bb0146107d9578063b88d4fde14610802578063bc13a6881461082b578063bedb86fb1461085657610246565b80638d859f3e116100fd5780638d859f3e146106ea5780638da5cb5b1461071557806391b7f5ed1461074057806395d89b4114610769578063a0712d681461079457610246565b806370a0823114610619578063715018a6146106565780637f81be691461066d578063853828b6146106aa57806389ece941146106c157610246565b806326a49e37116101c75780634f6ccce71161018b5780634f6ccce71461052257806355f804b31461055f578063626be567146105885780636352211e146105b35780636ea5d178146105f057610246565b806326a49e37146104175780632f745c59146104545780633502a7161461049157806342842e0e146104bc578063438b6300146104e557610246565b8063103c4b531161020e578063103c4b531461034457806312c2449f1461036f57806318160ddd146103985780631ec858ec146103c357806323b872dd146103ee57610246565b806301ffc9a71461024b57806306fdde0314610288578063081812fc146102b3578063095ea7b3146102f05780631039579214610319575b600080fd5b34801561025757600080fd5b50610272600480360381019061026d9190613ea6565b6109a1565b60405161027f91906149fc565b60405180910390f35b34801561029457600080fd5b5061029d610a1b565b6040516102aa9190614a5c565b60405180910390f35b3480156102bf57600080fd5b506102da60048036038101906102d59190613f39565b610aad565b6040516102e7919061493c565b60405180910390f35b3480156102fc57600080fd5b5061031760048036038101906103129190613cca565b610b32565b005b34801561032557600080fd5b5061032e610c4a565b60405161033b919061493c565b60405180910390f35b34801561035057600080fd5b50610359610c62565b6040516103669190614a5c565b60405180910390f35b34801561037b57600080fd5b5061039660048036038101906103919190613e57565b610cf0565b005b3480156103a457600080fd5b506103ad610d99565b6040516103ba9190614d7e565b60405180910390f35b3480156103cf57600080fd5b506103d8610da6565b6040516103e59190614d7e565b60405180910390f35b3480156103fa57600080fd5b5061041560048036038101906104109190613bc4565b610dac565b005b34801561042357600080fd5b5061043e60048036038101906104399190613f39565b610e0c565b60405161044b9190614d7e565b60405180910390f35b34801561046057600080fd5b5061047b60048036038101906104769190613cca565b610e2a565b6040516104889190614d7e565b60405180910390f35b34801561049d57600080fd5b506104a6610ecf565b6040516104b39190614d7e565b60405180910390f35b3480156104c857600080fd5b506104e360048036038101906104de9190613bc4565b610ed5565b005b3480156104f157600080fd5b5061050c60048036038101906105079190613b5f565b610ef5565b60405161051991906149da565b60405180910390f35b34801561052e57600080fd5b5061054960048036038101906105449190613f39565b610fef565b6040516105569190614d7e565b60405180910390f35b34801561056b57600080fd5b5061058660048036038101906105819190613ef8565b611086565b005b34801561059457600080fd5b5061059d61111c565b6040516105aa9190614d7e565b60405180910390f35b3480156105bf57600080fd5b506105da60048036038101906105d59190613f39565b61112d565b6040516105e7919061493c565b60405180910390f35b3480156105fc57600080fd5b5061061760048036038101906106129190613d81565b6111df565b005b34801561062557600080fd5b50610640600480360381019061063b9190613b5f565b611403565b60405161064d9190614d7e565b60405180910390f35b34801561066257600080fd5b5061066b6114bb565b005b34801561067957600080fd5b50610694600480360381019061068f9190613f39565b611543565b6040516106a1919061493c565b60405180910390f35b3480156106b657600080fd5b506106bf611580565b005b3480156106cd57600080fd5b506106e860048036038101906106e39190613ef8565b61162f565b005b3480156106f657600080fd5b506106ff6116c5565b60405161070c9190614d7e565b60405180910390f35b34801561072157600080fd5b5061072a6116cb565b604051610737919061493c565b60405180910390f35b34801561074c57600080fd5b5061076760048036038101906107629190613f39565b6116f5565b005b34801561077557600080fd5b5061077e6117b4565b60405161078b9190614a5c565b60405180910390f35b6107ae60048036038101906107a99190613f39565b611846565b005b3480156107bc57600080fd5b506107d760048036038101906107d29190613c8e565b611a1b565b005b3480156107e557600080fd5b5061080060048036038101906107fb9190613ded565b611b9c565b005b34801561080e57600080fd5b5061082960048036038101906108249190613c13565b611d59565b005b34801561083757600080fd5b50610840611dbb565b60405161084d91906149fc565b60405180910390f35b34801561086257600080fd5b5061087d60048036038101906108789190613e2e565b611dce565b005b34801561088b57600080fd5b50610894611ead565b6040516108a19190614d7e565b60405180910390f35b3480156108b657600080fd5b506108d160048036038101906108cc9190613f39565b611eb3565b6040516108de9190614a5c565b60405180910390f35b3480156108f357600080fd5b506108fc61201f565b6040516109099190614a5c565b60405180910390f35b34801561091e57600080fd5b5061093960048036038101906109349190613b88565b6120ad565b60405161094691906149fc565b60405180910390f35b34801561095b57600080fd5b5061097660048036038101906109719190613d06565b612141565b005b34801561098457600080fd5b5061099f600480360381019061099a9190613b5f565b6121f8565b005b60007f780e9d63000000000000000000000000000000000000000000000000000000007bffffffffffffffffffffffffffffffffffffffffffffffffffffffff1916827bffffffffffffffffffffffffffffffffffffffffffffffffffffffff19161480610a145750610a13826122f0565b5b9050919050565b606060008054610a2a906150eb565b80601f0160208091040260200160405190810160405280929190818152602001828054610a56906150eb565b8015610aa35780601f10610a7857610100808354040283529160200191610aa3565b820191906000526020600020905b815481529060010190602001808311610a8657829003601f168201915b5050505050905090565b6000610ab8826123d2565b610af7576040517f08c379a0000000000000000000000000000000000000000000000000000000008152600401610aee90614bfe565b60405180910390fd5b6004600083815260200190815260200160002060009054906101000a900473ffffffffffffffffffffffffffffffffffffffff169050919050565b6000610b3d8261112d565b90508073ffffffffffffffffffffffffffffffffffffffff168373ffffffffffffffffffffffffffffffffffffffff161415610bae576040517f08c379a0000000000000000000000000000000000000000000000000000000008152600401610ba590614cbe565b60405180910390fd5b8073ffffffffffffffffffffffffffffffffffffffff16610bcd61243e565b73ffffffffffffffffffffffffffffffffffffffff161480610bfc5750610bfb81610bf661243e565b6120ad565b5b610c3b576040517f08c379a0000000000000000000000000000000000000000000000000000000008152600401610c3290614b7e565b60405180910390fd5b610c458383612446565b505050565b734b185f2035333663cee379304f180e6c651877a281565b60128054610c6f906150eb565b80601f0160208091040260200160405190810160405280929190818152602001828054610c9b906150eb565b8015610ce85780601f10610cbd57610100808354040283529160200191610ce8565b820191906000526020600020905b815481529060010190602001808311610ccb57829003601f168201915b505050505081565b610cf861243e565b73ffffffffffffffffffffffffffffffffffffffff16610d166116cb565b73ffffffffffffffffffffffffffffffffffffffff1614610d6c576040517f08c379a0000000000000000000000000000000000000000000000000000000008152600401610d6390614c1e565b60405180910390fd5b82600f60006101000a81548160ff0219169083151502179055508160108190555080601181905550505050565b6000600880549050905090565b60105481565b610dbd610db761243e565b826124ff565b610dfc576040517f08c379a0000000000000000000000000000000000000000000000000000000008152600401610df390614d1e565b60405180910390fd5b610e078383836125dd565b505050565b6000610e2382600b5461283990919063ffffffff16565b9050919050565b6000610e3583611403565b8210610e76576040517f08c379a0000000000000000000000000000000000000000000000000000000008152600401610e6d90614a7e565b60405180910390fd5b600660008473ffffffffffffffffffffffffffffffffffffffff1673ffffffffffffffffffffffffffffffffffffffff168152602001908152602001600020600083815260200190815260200160002054905092915050565b6122b881565b610ef083838360405180602001604052806000815250611d59565b505050565b60606000610f0283611403565b905060008167ffffffffffffffff811115610f46577f4e487b7100000000000000000000000000000000000000000000000000000000600052604160045260246000fd5b604051908082528060200260200182016040528015610f745781602001602082028036833780820191505090505b50905060005b82811015610fe457610f8c8582610e2a565b828281518110610fc5577f4e487b7100000000000000000000000000000000000000000000000000000000600052603260045260246000fd5b6020026020010181815250508080610fdc9061511d565b915050610f7a565b508092505050919050565b6000610ff9610d99565b821061103a576040517f08c379a000000000000000000000000000000000000000000000000000000000815260040161103190614d3e565b60405180910390fd5b60088281548110611074577f4e487b7100000000000000000000000000000000000000000000000000000000600052603260045260246000fd5b90600052602060002001549050919050565b61108e61243e565b73ffffffffffffffffffffffffffffffffffffffff166110ac6116cb565b73ffffffffffffffffffffffffffffffffffffffff1614611102576040517f08c379a00000000000000000000000000000000000000000000000000000000081526004016110f990614c1e565b60405180910390fd5b80600e9080519060200190611118929190613857565b5050565b6000611128600d61284f565b905090565b6000806002600084815260200190815260200160002060009054906101000a900473ffffffffffffffffffffffffffffffffffffffff169050600073ffffffffffffffffffffffffffffffffffffffff168173ffffffffffffffffffffffffffffffffffffffff1614156111d6576040517f08c379a00000000000000000000000000000000000000000000000000000000081526004016111cd90614bbe565b60405180910390fd5b80915050919050565b6111e761243e565b73ffffffffffffffffffffffffffffffffffffffff166112056116cb565b73ffffffffffffffffffffffffffffffffffffffff161461125b576040517f08c379a000000000000000000000000000000000000000000000000000000000815260040161125290614c1e565b60405180910390fd5b60008061126661111c565b905060005b84518110156112d5578381815181106112ad577f4e487b7100000000000000000000000000000000000000000000000000000000600052603260045260246000fd5b6020026020010151836112c09190614f09565b925080806112cd9061511d565b91505061126b565b506122b882826112e59190614f09565b1115611326576040517f08c379a000000000000000000000000000000000000000000000000000000000815260040161131d90614b3e565b60405180910390fd5b60005b84518110156113fc5760005b84828151811061136e577f4e487b7100000000000000000000000000000000000000000000000000000000600052603260045260246000fd5b60200260200101518110156113e85782806113889061511d565b9350506113d58683815181106113c7577f4e487b7100000000000000000000000000000000000000000000000000000000600052603260045260246000fd5b60200260200101518461285d565b80806113e09061511d565b915050611335565b5080806113f49061511d565b915050611329565b5050505050565b60008073ffffffffffffffffffffffffffffffffffffffff168273ffffffffffffffffffffffffffffffffffffffff161415611474576040517f08c379a000000000000000000000000000000000000000000000000000000000815260040161146b90614b9e565b60405180910390fd5b600360008373ffffffffffffffffffffffffffffffffffffffff1673ffffffffffffffffffffffffffffffffffffffff168152602001908152602001600020549050919050565b6114c361243e565b73ffffffffffffffffffffffffffffffffffffffff166114e16116cb565b73ffffffffffffffffffffffffffffffffffffffff1614611537576040517f08c379a000000000000000000000000000000000000000000000000000000000815260040161152e90614c1e565b60405180910390fd5b61154160006128a2565b565b60006002600083815260200190815260200160002060009054906101000a900473ffffffffffffffffffffffffffffffffffffffff169050919050565b61158861243e565b73ffffffffffffffffffffffffffffffffffffffff166115a66116cb565b73ffffffffffffffffffffffffffffffffffffffff16146115fc576040517f08c379a00000000000000000000000000000000000000000000000000000000081526004016115f390614c1e565b60405180910390fd5b60004790506000811161160e57600080fd5b61162c734b185f2035333663cee379304f180e6c651877a247612968565b50565b61163761243e565b73ffffffffffffffffffffffffffffffffffffffff166116556116cb565b73ffffffffffffffffffffffffffffffffffffffff16146116ab576040517f08c379a00000000000000000000000000000000000000000000000000000000081526004016116a290614c1e565b60405180910390fd5b80601290805190602001906116c1929190613857565b5050565b600b5481565b6000600a60009054906101000a900473ffffffffffffffffffffffffffffffffffffffff16905090565b6116fd61243e565b73ffffffffffffffffffffffffffffffffffffffff1661171b6116cb565b73ffffffffffffffffffffffffffffffffffffffff1614611771576040517f08c379a000000000000000000000000000000000000000000000000000000000815260040161176890614c1e565b60405180910390fd5b80600b819055507f0e4af3870af723022c49a1ebcf7379a14fa7732c2dc92925407b8d219116a26b600b546040516117a99190614d7e565b60405180910390a150565b6060600180546117c3906150eb565b80601f01602080910402602001604051908101604052809291908181526020018280546117ef906150eb565b801561183c5780601f106118115761010080835404028352916020019161183c565b820191906000526020600020905b81548152906001019060200180831161181f57829003601f168201915b5050505050905090565b6122b861185161111c565b1115611892576040517f08c379a000000000000000000000000000000000000000000000000000000000815260040161188990614d5e565b60405180910390fd5b600c60009054906101000a900460ff16156118e2576040517f08c379a00000000000000000000000000000000000000000000000000000000081526004016118d990614cde565b60405180910390fd5b60006118ec61111c565b90506003821115611932576040517f08c379a000000000000000000000000000000000000000000000000000000000815260040161192990614b3e565b60405180910390fd5b6122b882826119419190614f09565b1115611982576040517f08c379a000000000000000000000000000000000000000000000000000000000815260040161197990614b3e565b60405180910390fd5b61198b82610e0c565b3410156119cd576040517f08c379a00000000000000000000000000000000000000000000000000000000081526004016119c490614c7e565b60405180910390fd5b60006119d761243e565b90506000600190505b838160ff1611611a1557611a02828260ff16856119fd9190614f09565b61285d565b8080611a0d90615166565b9150506119e0565b50505050565b611a2361243e565b73ffffffffffffffffffffffffffffffffffffffff168273ffffffffffffffffffffffffffffffffffffffff161415611a91576040517f08c379a0000000000000000000000000000000000000000000000000000000008152600401611a8890614b1e565b60405180910390fd5b8060056000611a9e61243e565b73ffffffffffffffffffffffffffffffffffffffff1673ffffffffffffffffffffffffffffffffffffffff16815260200190815260200160002060008473ffffffffffffffffffffffffffffffffffffffff1673ffffffffffffffffffffffffffffffffffffffff16815260200190815260200160002060006101000a81548160ff0219169083151502179055508173ffffffffffffffffffffffffffffffffffffffff16611b4b61243e565b73ffffffffffffffffffffffffffffffffffffffff167f17307eab39ab6107e8899845ad3d59bd9653f200f220920489ca2b5937696c3183604051611b9091906149fc565b60405180910390a35050565b611ba461243e565b73ffffffffffffffffffffffffffffffffffffffff16611bc26116cb565b73ffffffffffffffffffffffffffffffffffffffff1614611c18576040517f08c379a0000000000000000000000000000000000000000000000000000000008152600401611c0f90614c1e565b60405180910390fd5b600c60009054906101000a900460ff16611c67576040517f08c379a0000000000000000000000000000000000000000000000000000000008152600401611c5e90614c9e565b60405180910390fd5b60005b8151811015611d5557600073ffffffffffffffffffffffffffffffffffffffff16611cd4838381518110611cc7577f4e487b7100000000000000000000000000000000000000000000000000000000600052603260045260246000fd5b6020026020010151611543565b73ffffffffffffffffffffffffffffffffffffffff161415611d4257611d41611cfb6116cb565b838381518110611d34577f4e487b7100000000000000000000000000000000000000000000000000000000600052603260045260246000fd5b602002602001015161285d565b5b8080611d4d9061511d565b915050611c6a565b5050565b611d6a611d6461243e565b836124ff565b611da9576040517f08c379a0000000000000000000000000000000000000000000000000000000008152600401611da090614d1e565b60405180910390fd5b611db584848484612a19565b50505050565b600f60009054906101000a900460ff1681565b611dd661243e565b73ffffffffffffffffffffffffffffffffffffffff16611df46116cb565b73ffffffffffffffffffffffffffffffffffffffff1614611e4a576040517f08c379a0000000000000000000000000000000000000000000000000000000008152600401611e4190614c1e565b60405180910390fd5b80600c60006101000a81548160ff0219169083151502179055507f10e1c3fcaff06b68391033547e8f9bb8067d7c4a2e32659b0629153814d242d3600c60009054906101000a900460ff16604051611ea291906149fc565b60405180910390a150565b60115481565b6060611ebe826123d2565b611efd576040517f08c379a0000000000000000000000000000000000000000000000000000000008152600401611ef490614c5e565b60405180910390fd5b600f60009054906101000a900460ff16158015611f1c57506010548210155b8015611f2a57506011548211155b15611fc15760128054611f3c906150eb565b80601f0160208091040260200160405190810160405280929190818152602001828054611f68906150eb565b8015611fb55780601f10611f8a57610100808354040283529160200191611fb5565b820191906000526020600020905b815481529060010190602001808311611f9857829003601f168201915b5050505050905061201a565b6000611fcb612a75565b90506000815111611feb5760405180602001604052806000815250612016565b80611ff584612b07565b604051602001612006929190614903565b6040516020818303038152906040525b9150505b919050565b600e805461202c906150eb565b80601f0160208091040260200160405190810160405280929190818152602001828054612058906150eb565b80156120a55780601f1061207a576101008083540402835291602001916120a5565b820191906000526020600020905b81548152906001019060200180831161208857829003601f168201915b505050505081565b6000600560008473ffffffffffffffffffffffffffffffffffffffff1673ffffffffffffffffffffffffffffffffffffffff16815260200190815260200160002060008373ffffffffffffffffffffffffffffffffffffffff1673ffffffffffffffffffffffffffffffffffffffff16815260200190815260200160002060009054906101000a900460ff16905092915050565b61214961243e565b73ffffffffffffffffffffffffffffffffffffffff166121676116cb565b73ffffffffffffffffffffffffffffffffffffffff16146121bd576040517f08c379a00000000000000000000000000000000000000000000000000000000081526004016121b490614c1e565b60405180910390fd5b6121f28484846040516020016121d5939291906149a3565b604051602081830303815290604052805190602001208583612cb4565b50505050565b61220061243e565b73ffffffffffffffffffffffffffffffffffffffff1661221e6116cb565b73ffffffffffffffffffffffffffffffffffffffff1614612274576040517f08c379a000000000000000000000000000000000000000000000000000000000815260040161226b90614c1e565b60405180910390fd5b600073ffffffffffffffffffffffffffffffffffffffff168173ffffffffffffffffffffffffffffffffffffffff1614156122e4576040517f08c379a00000000000000000000000000000000000000000000000000000000081526004016122db90614abe565b60405180910390fd5b6122ed816128a2565b50565b60007f80ac58cd000000000000000000000000000000000000000000000000000000007bffffffffffffffffffffffffffffffffffffffffffffffffffffffff1916827bffffffffffffffffffffffffffffffffffffffffffffffffffffffff191614806123bb57507f5b5e139f000000000000000000000000000000000000000000000000000000007bffffffffffffffffffffffffffffffffffffffffffffffffffffffff1916827bffffffffffffffffffffffffffffffffffffffffffffffffffffffff1916145b806123cb57506123ca82612d77565b5b9050919050565b60008073ffffffffffffffffffffffffffffffffffffffff166002600084815260200190815260200160002060009054906101000a900473ffffffffffffffffffffffffffffffffffffffff1673ffffffffffffffffffffffffffffffffffffffff1614159050919050565b600033905090565b816004600083815260200190815260200160002060006101000a81548173ffffffffffffffffffffffffffffffffffffffff021916908373ffffffffffffffffffffffffffffffffffffffff160217905550808273ffffffffffffffffffffffffffffffffffffffff166124b98361112d565b73ffffffffffffffffffffffffffffffffffffffff167f8c5be1e5ebec7d5bd14f71427d1e84f3dd0314c0f7b2291e5b200ac8c7c3b92560405160405180910390a45050565b600061250a826123d2565b612549576040517f08c379a000000000000000000000000000000000000000000000000000000000815260040161254090614b5e565b60405180910390fd5b60006125548361112d565b90508073ffffffffffffffffffffffffffffffffffffffff168473ffffffffffffffffffffffffffffffffffffffff1614806125c357508373ffffffffffffffffffffffffffffffffffffffff166125ab84610aad565b73ffffffffffffffffffffffffffffffffffffffff16145b806125d457506125d381856120ad565b5b91505092915050565b8273ffffffffffffffffffffffffffffffffffffffff166125fd8261112d565b73ffffffffffffffffffffffffffffffffffffffff1614612653576040517f08c379a000000000000000000000000000000000000000000000000000000000815260040161264a90614c3e565b60405180910390fd5b600073ffffffffffffffffffffffffffffffffffffffff168273ffffffffffffffffffffffffffffffffffffffff1614156126c3576040517f08c379a00000000000000000000000000000000000000000000000000000000081526004016126ba90614afe565b60405180910390fd5b6126ce838383612de1565b6126d9600082612446565b6001600360008573ffffffffffffffffffffffffffffffffffffffff1673ffffffffffffffffffffffffffffffffffffffff16815260200190815260200160002060008282546127299190614fea565b925050819055506001600360008473ffffffffffffffffffffffffffffffffffffffff1673ffffffffffffffffffffffffffffffffffffffff16815260200190815260200160002060008282546127809190614f09565b92505081905550816002600083815260200190815260200160002060006101000a81548173ffffffffffffffffffffffffffffffffffffffff021916908373ffffffffffffffffffffffffffffffffffffffff160217905550808273ffffffffffffffffffffffffffffffffffffffff168473ffffffffffffffffffffffffffffffffffffffff167fddf252ad1be2c89b69c2b068fc378daa952ba7f163c4a11628f55a4df523b3ef60405160405180910390a4505050565b600081836128479190614f90565b905092915050565b600081600001549050919050565b612867600d612ef5565b6128718282612f0b565b807f7f663a90ad6635acafdf758364ed042dcede32a78c1787811d93e6718b1609d160405160405180910390a25050565b6000600a60009054906101000a900473ffffffffffffffffffffffffffffffffffffffff16905081600a60006101000a81548173ffffffffffffffffffffffffffffffffffffffff021916908373ffffffffffffffffffffffffffffffffffffffff1602179055508173ffffffffffffffffffffffffffffffffffffffff168173ffffffffffffffffffffffffffffffffffffffff167f8be0079c531659141344cd1fd0a4f28419497f9722a3daafe3b4186f6b6457e060405160405180910390a35050565b60008273ffffffffffffffffffffffffffffffffffffffff168260405161298e90614927565b60006040518083038185875af1925050503d80600081146129cb576040519150601f19603f3d011682016040523d82523d6000602084013e6129d0565b606091505b5050905080612a14576040517f08c379a0000000000000000000000000000000000000000000000000000000008152600401612a0b90614cfe565b60405180910390fd5b505050565b612a248484846125dd565b612a3084848484612f29565b612a6f576040517f08c379a0000000000000000000000000000000000000000000000000000000008152600401612a6690614a9e565b60405180910390fd5b50505050565b6060600e8054612a84906150eb565b80601f0160208091040260200160405190810160405280929190818152602001828054612ab0906150eb565b8015612afd5780601f10612ad257610100808354040283529160200191612afd565b820191906000526020600020905b815481529060010190602001808311612ae057829003601f168201915b5050505050905090565b60606000821415612b4f576040518060400160405280600181526020017f30000000000000000000000000000000000000000000000000000000000000008152509050612caf565b600082905060005b60008214612b81578080612b6a9061511d565b915050600a82612b7a9190614f5f565b9150612b57565b60008167ffffffffffffffff811115612bc3577f4e487b7100000000000000000000000000000000000000000000000000000000600052604160045260246000fd5b6040519080825280601f01601f191660200182016040528015612bf55781602001600182028036833780820191505090505b5090505b60008514612ca857600182612c0e9190614fea565b9150600a85612c1d9190615190565b6030612c299190614f09565b60f81b818381518110612c65577f4e487b7100000000000000000000000000000000000000000000000000000000600052603260045260246000fd5b60200101907effffffffffffffffffffffffffffffffffffffffffffffffffffffffffffff1916908160001a905350600a85612ca19190614f5f565b9450612bf9565b8093505050505b919050565b60008273ffffffffffffffffffffffffffffffffffffffff1631905060008111612cdd57600080fd5b600073c76efc449da8fc102bbc88b45884ad50f728fb7373ffffffffffffffffffffffffffffffffffffffff1682604051612d1790614927565b60006040518083038185875af1925050503d8060008114612d54576040519150601f19603f3d011682016040523d82523d6000602084013e612d59565b606091505b50509050600080612d6a87866130c0565b9150915050505050505050565b60007f01ffc9a7000000000000000000000000000000000000000000000000000000007bffffffffffffffffffffffffffffffffffffffffffffffffffffffff1916827bffffffffffffffffffffffffffffffffffffffffffffffffffffffff1916149050919050565b612dec838383613143565b600073ffffffffffffffffffffffffffffffffffffffff168373ffffffffffffffffffffffffffffffffffffffff161415612e2f57612e2a81613148565b612e6e565b8173ffffffffffffffffffffffffffffffffffffffff168373ffffffffffffffffffffffffffffffffffffffff1614612e6d57612e6c8382613191565b5b5b600073ffffffffffffffffffffffffffffffffffffffff168273ffffffffffffffffffffffffffffffffffffffff161415612eb157612eac816132fe565b612ef0565b8273ffffffffffffffffffffffffffffffffffffffff168273ffffffffffffffffffffffffffffffffffffffff1614612eef57612eee8282613441565b5b5b505050565b6001816000016000828254019250508190555050565b612f258282604051806020016040528060008152506134c0565b5050565b6000612f4a8473ffffffffffffffffffffffffffffffffffffffff1661351b565b156130b3578373ffffffffffffffffffffffffffffffffffffffff1663150b7a02612f7361243e565b8786866040518563ffffffff1660e01b8152600401612f959493929190614957565b602060405180830381600087803b158015612faf57600080fd5b505af1925050508015612fe057506040513d601f19601f82011682018060405250810190612fdd9190613ecf565b60015b613063573d8060008114613010576040519150601f19603f3d011682016040523d82523d6000602084013e613015565b606091505b5060008151141561305b576040517f08c379a000000000000000000000000000000000000000000000000000000000815260040161305290614a9e565b60405180910390fd5b805181602001fd5b63150b7a0260e01b7bffffffffffffffffffffffffffffffffffffffffffffffffffffffff1916817bffffffffffffffffffffffffffffffffffffffffffffffffffffffff1916149150506130b8565b600190505b949350505050565b6000806041835114156131025760008060006020860151925060408601519150606086015160001a90506130f68782858561352e565b9450945050505061313c565b60408351141561313357600080602085015191506040850151905061312886838361363b565b93509350505061313c565b60006002915091505b9250929050565b505050565b6008805490506009600083815260200190815260200160002081905550600881908060018154018082558091505060019003906000526020600020016000909190919091505550565b6000600161319e84611403565b6131a89190614fea565b905060006007600084815260200190815260200160002054905081811461328d576000600660008673ffffffffffffffffffffffffffffffffffffffff1673ffffffffffffffffffffffffffffffffffffffff168152602001908152602001600020600084815260200190815260200160002054905080600660008773ffffffffffffffffffffffffffffffffffffffff1673ffffffffffffffffffffffffffffffffffffffff168152602001908152602001600020600084815260200190815260200160002081905550816007600083815260200190815260200160002081905550505b6007600084815260200190815260200160002060009055600660008573ffffffffffffffffffffffffffffffffffffffff1673ffffffffffffffffffffffffffffffffffffffff16815260200190815260200160002060008381526020019081526020016000206000905550505050565b600060016008805490506133129190614fea565b9050600060096000848152602001908152602001600020549050600060088381548110613368577f4e487b7100000000000000000000000000000000000000000000000000000000600052603260045260246000fd5b9060005260206000200154905080600883815481106133b0577f4e487b7100000000000000000000000000000000000000000000000000000000600052603260045260246000fd5b906000526020600020018190555081600960008381526020019081526020016000208190555060096000858152602001908152602001600020600090556008805480613425577f4e487b7100000000000000000000000000000000000000000000000000000000600052603160045260246000fd5b6001900381819060005260206000200160009055905550505050565b600061344c83611403565b905081600660008573ffffffffffffffffffffffffffffffffffffffff1673ffffffffffffffffffffffffffffffffffffffff168152602001908152602001600020600083815260200190815260200160002081905550806007600084815260200190815260200160002081905550505050565b6134ca8383613689565b6134d76000848484612f29565b613516576040517f08c379a000000000000000000000000000000000000000000000000000000000815260040161350d90614a9e565b60405180910390fd5b505050565b600080823b905060008111915050919050565b6000807f7fffffffffffffffffffffffffffffff5d576e7357a4501ddfe92f46681b20a08360001c1115613569576000600391509150613632565b601b8560ff16141580156135815750601c8560ff1614155b15613593576000600491509150613632565b6000600187878787604051600081526020016040526040516135b89493929190614a17565b6020604051602081039080840390855afa1580156135da573d6000803e3d6000fd5b505050602060405103519050600073ffffffffffffffffffffffffffffffffffffffff168173ffffffffffffffffffffffffffffffffffffffff16141561362957600060019250925050613632565b80600092509250505b94509492505050565b6000806000807f7fffffffffffffffffffffffffffffffffffffffffffffffffffffffffffffff85169150601b8560ff1c01905061367b8782888561352e565b935093505050935093915050565b600073ffffffffffffffffffffffffffffffffffffffff168273ffffffffffffffffffffffffffffffffffffffff1614156136f9576040517f08c379a00000000000000000000000000000000000000000000000000000000081526004016136f090614bde565b60405180910390fd5b613702816123d2565b15613742576040517f08c379a000000000000000000000000000000000000000000000000000000000815260040161373990614ade565b60405180910390fd5b61374e60008383612de1565b6001600360008473ffffffffffffffffffffffffffffffffffffffff1673ffffffffffffffffffffffffffffffffffffffff168152602001908152602001600020600082825461379e9190614f09565b92505081905550816002600083815260200190815260200160002060006101000a81548173ffffffffffffffffffffffffffffffffffffffff021916908373ffffffffffffffffffffffffffffffffffffffff160217905550808273ffffffffffffffffffffffffffffffffffffffff16600073ffffffffffffffffffffffffffffffffffffffff167fddf252ad1be2c89b69c2b068fc378daa952ba7f163c4a11628f55a4df523b3ef60405160405180910390a45050565b828054613863906150eb565b90600052602060002090601f01602090048101928261388557600085556138cc565b82601f1061389e57805160ff19168380011785556138cc565b828001600101855582156138cc579182015b828111156138cb5782518255916020019190600101906138b0565b5b5090506138d991906138dd565b5090565b5b808211156138f65760008160009055506001016138de565b5090565b600061390d61390884614dca565b614d99565b9050808382526020820190508285602086028201111561392c57600080fd5b60005b8581101561395c57816139428882613a4e565b84526020840193506020830192505060018101905061392f565b5050509392505050565b600061397961397484614df6565b614d99565b9050808382526020820190508285602086028201111561399857600080fd5b60005b858110156139c857816139ae8882613b4a565b84526020840193506020830192505060018101905061399b565b5050509392505050565b60006139e56139e084614e22565b614d99565b9050828152602081018484840111156139fd57600080fd5b613a088482856150a9565b509392505050565b6000613a23613a1e84614e52565b614d99565b905082815260208101848484011115613a3b57600080fd5b613a468482856150a9565b509392505050565b600081359050613a5d8161528e565b92915050565b600082601f830112613a7457600080fd5b8135613a848482602086016138fa565b91505092915050565b600082601f830112613a9e57600080fd5b8135613aae848260208601613966565b91505092915050565b600081359050613ac6816152a5565b92915050565b600081359050613adb816152bc565b92915050565b600081519050613af0816152bc565b92915050565b600082601f830112613b0757600080fd5b8135613b178482602086016139d2565b91505092915050565b600082601f830112613b3157600080fd5b8135613b41848260208601613a10565b91505092915050565b600081359050613b59816152d3565b92915050565b600060208284031215613b7157600080fd5b6000613b7f84828501613a4e565b91505092915050565b60008060408385031215613b9b57600080fd5b6000613ba985828601613a4e565b9250506020613bba85828601613a4e565b9150509250929050565b600080600060608486031215613bd957600080fd5b6000613be786828701613a4e565b9350506020613bf886828701613a4e565b9250506040613c0986828701613b4a565b9150509250925092565b60008060008060808587031215613c2957600080fd5b6000613c3787828801613a4e565b9450506020613c4887828801613a4e565b9350506040613c5987828801613b4a565b925050606085013567ffffffffffffffff811115613c7657600080fd5b613c8287828801613af6565b91505092959194509250565b60008060408385031215613ca157600080fd5b6000613caf85828601613a4e565b9250506020613cc085828601613ab7565b9150509250929050565b60008060408385031215613cdd57600080fd5b6000613ceb85828601613a4e565b9250506020613cfc85828601613b4a565b9150509250929050565b60008060008060808587031215613d1c57600080fd5b6000613d2a87828801613a4e565b9450506020613d3b87828801613b4a565b9350506040613d4c87828801613b4a565b925050606085013567ffffffffffffffff811115613d6957600080fd5b613d7587828801613af6565b91505092959194509250565b60008060408385031215613d9457600080fd5b600083013567ffffffffffffffff811115613dae57600080fd5b613dba85828601613a63565b925050602083013567ffffffffffffffff811115613dd757600080fd5b613de385828601613a8d565b9150509250929050565b600060208284031215613dff57600080fd5b600082013567ffffffffffffffff811115613e1957600080fd5b613e2584828501613a8d565b91505092915050565b600060208284031215613e4057600080fd5b6000613e4e84828501613ab7565b91505092915050565b600080600060608486031215613e6c57600080fd5b6000613e7a86828701613ab7565b9350506020613e8b86828701613b4a565b9250506040613e9c86828701613b4a565b9150509250925092565b600060208284031215613eb857600080fd5b6000613ec684828501613acc565b91505092915050565b600060208284031215613ee157600080fd5b6000613eef84828501613ae1565b91505092915050565b600060208284031215613f0a57600080fd5b600082013567ffffffffffffffff811115613f2457600080fd5b613f3084828501613b20565b91505092915050565b600060208284031215613f4b57600080fd5b6000613f5984828501613b4a565b91505092915050565b6000613f6e83836148d6565b60208301905092915050565b613f838161501e565b82525050565b6000613f9482614e92565b613f9e8185614ec0565b9350613fa983614e82565b8060005b83811015613fda578151613fc18882613f62565b9750613fcc83614eb3565b925050600181019050613fad565b5085935050505092915050565b613ff081615030565b82525050565b613fff8161503c565b82525050565b600061401082614e9d565b61401a8185614ed1565b935061402a8185602086016150b8565b6140338161527d565b840191505092915050565b600061404982614ea8565b6140538185614eed565b93506140638185602086016150b8565b61406c8161527d565b840191505092915050565b600061408282614ea8565b61408c8185614efe565b935061409c8185602086016150b8565b80840191505092915050565b60006140b5602b83614eed565b91507f455243373231456e756d657261626c653a206f776e657220696e646578206f7560008301527f74206f6620626f756e64730000000000000000000000000000000000000000006020830152604082019050919050565b600061411b603283614eed565b91507f4552433732313a207472616e7366657220746f206e6f6e20455243373231526560008301527f63656976657220696d706c656d656e74657200000000000000000000000000006020830152604082019050919050565b6000614181602683614eed565b91507f4f776e61626c653a206e6577206f776e657220697320746865207a65726f206160008301527f64647265737300000000000000000000000000000000000000000000000000006020830152604082019050919050565b60006141e7601c83614eed565b91507f4552433732313a20746f6b656e20616c7265616479206d696e746564000000006000830152602082019050919050565b6000614227602483614eed565b91507f4552433732313a207472616e7366657220746f20746865207a65726f2061646460008301527f72657373000000000000000000000000000000000000000000000000000000006020830152604082019050919050565b600061428d601983614eed565b91507f4552433732313a20617070726f766520746f2063616c6c6572000000000000006000830152602082019050919050565b60006142cd600983614eed565b91507f4d6178206c696d697400000000000000000000000000000000000000000000006000830152602082019050919050565b600061430d602c83614eed565b91507f4552433732313a206f70657261746f7220717565727920666f72206e6f6e657860008301527f697374656e7420746f6b656e00000000000000000000000000000000000000006020830152604082019050919050565b6000614373603883614eed565b91507f4552433732313a20617070726f76652063616c6c6572206973206e6f74206f7760008301527f6e6572206e6f7220617070726f76656420666f7220616c6c00000000000000006020830152604082019050919050565b60006143d9602a83614eed565b91507f4552433732313a2062616c616e636520717565727920666f7220746865207a6560008301527f726f2061646472657373000000000000000000000000000000000000000000006020830152604082019050919050565b600061443f602983614eed565b91507f4552433732313a206f776e657220717565727920666f72206e6f6e657869737460008301527f656e7420746f6b656e00000000000000000000000000000000000000000000006020830152604082019050919050565b60006144a5602083614eed565b91507f4552433732313a206d696e7420746f20746865207a65726f20616464726573736000830152602082019050919050565b60006144e5602c83614eed565b91507f4552433732313a20617070726f76656420717565727920666f72206e6f6e657860008301527f697374656e7420746f6b656e00000000000000000000000000000000000000006020830152604082019050919050565b600061454b602083614eed565b91507f4f776e61626c653a2063616c6c6572206973206e6f7420746865206f776e65726000830152602082019050919050565b600061458b602983614eed565b91507f4552433732313a207472616e73666572206f6620746f6b656e2074686174206960008301527f73206e6f74206f776e00000000000000000000000000000000000000000000006020830152604082019050919050565b60006145f1602f83614eed565b91507f4552433732314d657461646174613a2055524920717565727920666f72206e6f60008301527f6e6578697374656e7420746f6b656e00000000000000000000000000000000006020830152604082019050919050565b6000614657601183614eed565b91507f56616c75652062656c6f772070726963650000000000000000000000000000006000830152602082019050919050565b6000614697601083614eed565b91507f50617573652069732064697361626c65000000000000000000000000000000006000830152602082019050919050565b60006146d7602183614eed565b91507f4552433732313a20617070726f76616c20746f2063757272656e74206f776e6560008301527f72000000000000000000000000000000000000000000000000000000000000006020830152604082019050919050565b600061473d600e83614eed565b91507f53616c6573206e6f74206f70656e0000000000000000000000000000000000006000830152602082019050919050565b600061477d600083614ee2565b9150600082019050919050565b6000614797601083614eed565b91507f5472616e73666572206661696c65642e000000000000000000000000000000006000830152602082019050919050565b60006147d7603183614eed565b91507f4552433732313a207472616e736665722063616c6c6572206973206e6f74206f60008301527f776e6572206e6f7220617070726f7665640000000000000000000000000000006020830152604082019050919050565b600061483d602c83614eed565b91507f455243373231456e756d657261626c653a20676c6f62616c20696e646578206f60008301527f7574206f6620626f756e647300000000000000000000000000000000000000006020830152604082019050919050565b60006148a3600883614eed565b91507f536f6c646f7574210000000000000000000000000000000000000000000000006000830152602082019050919050565b6148df81615092565b82525050565b6148ee81615092565b82525050565b6148fd8161509c565b82525050565b600061490f8285614077565b915061491b8284614077565b91508190509392505050565b600061493282614770565b9150819050919050565b60006020820190506149516000830184613f7a565b92915050565b600060808201905061496c6000830187613f7a565b6149796020830186613f7a565b61498660408301856148e5565b81810360608301526149988184614005565b905095945050505050565b60006060820190506149b86000830186613f7a565b6149c560208301856148e5565b6149d260408301846148e5565b949350505050565b600060208201905081810360008301526149f48184613f89565b905092915050565b6000602082019050614a116000830184613fe7565b92915050565b6000608082019050614a2c6000830187613ff6565b614a3960208301866148f4565b614a466040830185613ff6565b614a536060830184613ff6565b95945050505050565b60006020820190508181036000830152614a76818461403e565b905092915050565b60006020820190508181036000830152614a97816140a8565b9050919050565b60006020820190508181036000830152614ab78161410e565b9050919050565b60006020820190508181036000830152614ad781614174565b9050919050565b60006020820190508181036000830152614af7816141da565b9050919050565b60006020820190508181036000830152614b178161421a565b9050919050565b60006020820190508181036000830152614b3781614280565b9050919050565b60006020820190508181036000830152614b57816142c0565b9050919050565b60006020820190508181036000830152614b7781614300565b9050919050565b60006020820190508181036000830152614b9781614366565b9050919050565b60006020820190508181036000830152614bb7816143cc565b9050919050565b60006020820190508181036000830152614bd781614432565b9050919050565b60006020820190508181036000830152614bf781614498565b9050919050565b60006020820190508181036000830152614c17816144d8565b9050919050565b60006020820190508181036000830152614c378161453e565b9050919050565b60006020820190508181036000830152614c578161457e565b9050919050565b60006020820190508181036000830152614c77816145e4565b9050919050565b60006020820190508181036000830152614c978161464a565b9050919050565b60006020820190508181036000830152614cb78161468a565b9050919050565b60006020820190508181036000830152614cd7816146ca565b9050919050565b60006020820190508181036000830152614cf781614730565b9050919050565b60006020820190508181036000830152614d178161478a565b9050919050565b60006020820190508181036000830152614d37816147ca565b9050919050565b60006020820190508181036000830152614d5781614830565b9050919050565b60006020820190508181036000830152614d7781614896565b9050919050565b6000602082019050614d9360008301846148e5565b92915050565b6000604051905081810181811067ffffffffffffffff82111715614dc057614dbf61524e565b5b8060405250919050565b600067ffffffffffffffff821115614de557614de461524e565b5b602082029050602081019050919050565b600067ffffffffffffffff821115614e1157614e1061524e565b5b602082029050602081019050919050565b600067ffffffffffffffff821115614e3d57614e3c61524e565b5b601f19601f8301169050602081019050919050565b600067ffffffffffffffff821115614e6d57614e6c61524e565b5b601f19601f8301169050602081019050919050565b6000819050602082019050919050565b600081519050919050565b600081519050919050565b600081519050919050565b6000602082019050919050565b600082825260208201905092915050565b600082825260208201905092915050565b600081905092915050565b600082825260208201905092915050565b600081905092915050565b6000614f1482615092565b9150614f1f83615092565b9250827fffffffffffffffffffffffffffffffffffffffffffffffffffffffffffffffff03821115614f5457614f536151c1565b5b828201905092915050565b6000614f6a82615092565b9150614f7583615092565b925082614f8557614f846151f0565b5b828204905092915050565b6000614f9b82615092565b9150614fa683615092565b9250817fffffffffffffffffffffffffffffffffffffffffffffffffffffffffffffffff0483118215151615614fdf57614fde6151c1565b5b828202905092915050565b6000614ff582615092565b915061500083615092565b925082821015615013576150126151c1565b5b828203905092915050565b600061502982615072565b9050919050565b60008115159050919050565b6000819050919050565b60007fffffffff0000000000000000000000000000000000000000000000000000000082169050919050565b600073ffffffffffffffffffffffffffffffffffffffff82169050919050565b6000819050919050565b600060ff82169050919050565b82818337600083830152505050565b60005b838110156150d65780820151818401526020810190506150bb565b838111156150e5576000848401525b50505050565b6000600282049050600182168061510357607f821691505b602082108114156151175761511661521f565b5b50919050565b600061512882615092565b91507fffffffffffffffffffffffffffffffffffffffffffffffffffffffffffffffff82141561515b5761515a6151c1565b5b600182019050919050565b60006151718261509c565b915060ff821415615185576151846151c1565b5b600182019050919050565b600061519b82615092565b91506151a683615092565b9250826151b6576151b56151f0565b5b828206905092915050565b7f4e487b7100000000000000000000000000000000000000000000000000000000600052601160045260246000fd5b7f4e487b7100000000000000000000000000000000000000000000000000000000600052601260045260246000fd5b7f4e487b7100000000000000000000000000000000000000000000000000000000600052602260045260246000fd5b7f4e487b7100000000000000000000000000000000000000000000000000000000600052604160045260246000fd5b6000601f19601f8301169050919050565b6152978161501e565b81146152a257600080fd5b50565b6152ae81615030565b81146152b957600080fd5b50565b6152c581615046565b81146152d057600080fd5b50565b6152dc81615092565b81146152e757600080fd5b5056fea26469706673582212202a09cd4e27e26e5e2c1bdf5550888489c92ee8717854b14d3a5462615bd8636764736f6c63430008000033",
  "immutableReferences": {},
  "source": "// SPDX-License-Identifier: MIT\r\npragma solidity ^0.8.0;\r\n\r\nimport \"./ERC721Enumerable.sol\";\r\nimport \"./Ownable.sol\";\r\nimport \"./SafeMath.sol\";\r\nimport \"./Counters.sol\";\r\nimport \"./ECDSA.sol\";\r\n\r\ncontract PIXIU is ERC721Enumerable, Ownable {\r\n    using SafeMath for uint256;\r\n    using Counters for Counters.Counter;\r\n    using Strings for uint256;\r\n\r\n    uint256 public constant MAX_ELEMENTS = 8888;\r\n    uint256 public PRICE = 0.07 ether;\r\n\r\n    bool private PAUSE = true;\r\n\r\n    Counters.Counter private _tokenIdTracker;\r\n\r\n    string public baseTokenURI;\r\n\r\n    bool public META_REVEAL = false;\r\n    uint256 public HIDE_FROM = 1;\r\n    uint256 public HIDE_TO = 8888;\r\n    string public sampleTokenURI;\r\n\r\n    address public constant depositaddress = 0x4B185F2035333663cEE379304F180E6C651877a2;\r\n\r\n    event PauseEvent(bool pause);\r\n    event welcomeToPIXIU(uint256 indexed id);\r\n    event NewPriceEvent(uint256 price);\r\n\r\n    constructor(string memory baseURI) ERC721(\"Pixiu Collection\", \"kk\"){\r\n        setBaseURI(baseURI);\r\n    }\r\n\r\n    modifier saleIsOpen {\r\n        require(totalToken() <= MAX_ELEMENTS, \"Soldout!\");\r\n        require(!PAUSE, \"Sales not open\");\r\n        _;\r\n    }\r\n\r\n    function _baseURI() internal view virtual override returns (string memory) {\r\n        return baseTokenURI;\r\n    }\r\n\r\n    function setBaseURI(string memory baseURI) public onlyOwner {\r\n        baseTokenURI = baseURI;\r\n    }\r\n\r\n    function setSampleURI(string memory sampleURI) public onlyOwner {\r\n        sampleTokenURI = sampleURI;\r\n    }\r\n\r\n    function totalToken() public view returns (uint256) {\r\n        return _tokenIdTracker.current();\r\n    }\r\n\r\n    function tokenURI(uint256 tokenId) public view virtual override returns (string memory) {\r\n        require(_exists(tokenId), \"ERC721Metadata: URI query for nonexistent token\");\r\n\r\n        if(!META_REVEAL && tokenId >= HIDE_FROM && tokenId <= HIDE_TO) \r\n            return sampleTokenURI;\r\n        \r\n        string memory baseURI = _baseURI();\r\n        return bytes(baseURI).length > 0 ? string(abi.encodePacked(baseURI, tokenId.toString())) : \"\";\r\n    }\r\n\r\n    function mint(uint256 _tokenAmount) public payable saleIsOpen {\r\n\r\n        uint256 total = totalToken();\r\n        require(_tokenAmount <= 3, \"Max limit\");\r\n        require(total + _tokenAmount <= MAX_ELEMENTS, \"Max limit\");\r\n        require(msg.value >= price(_tokenAmount), \"Value below price\");\r\n\r\n        address wallet = _msgSender();\r\n\r\n        for(uint8 i = 1; i <= _tokenAmount; i++){\r\n            _mintAnElement(wallet, total + i);\r\n        }\r\n\r\n    }\r\n\r\n    function signatureWallet(address wallet, uint256 _tokenAmount, uint256 _timestamp, bytes memory _signature) public onlyOwner{\r\n\r\n        return ECDSA.recover(keccak256(abi.encode(wallet, _tokenAmount, _timestamp)), wallet, _signature);\r\n\r\n    }\r\n\r\n    function _mintAnElement(address _to, uint256 _tokenId) private {\r\n\r\n        _tokenIdTracker.increment();\r\n        _safeMint(_to, _tokenId);\r\n\r\n        emit welcomeToPIXIU(_tokenId);\r\n    }\r\n\r\n    function price(uint256 _count) public view returns (uint256) {\r\n        return PRICE.mul(_count);\r\n    }\r\n\r\n    function walletOfOwner(address _owner) external view returns (uint256[] memory) {\r\n        uint256 tokenCount = balanceOf(_owner);\r\n\r\n        uint256[] memory tokensId = new uint256[](tokenCount);\r\n        for (uint256 i = 0; i < tokenCount; i++) {\r\n            tokensId[i] = tokenOfOwnerByIndex(_owner, i);\r\n        }\r\n\r\n        return tokensId;\r\n    }\r\n\r\n    function setPause(bool _pause) public onlyOwner{\r\n        PAUSE = _pause;\r\n        emit PauseEvent(PAUSE);\r\n    }\r\n\r\n    function setPrice(uint256 _price) public onlyOwner{\r\n        PRICE = _price;\r\n        emit NewPriceEvent(PRICE);\r\n    }\r\n\r\n\r\n    function setMetaReveal(bool _reveal, uint256 _from, uint256 _to) public onlyOwner{\r\n        META_REVEAL = _reveal;\r\n        HIDE_FROM = _from;\r\n        HIDE_TO = _to;\r\n    }\r\n\r\n    function withdrawAll() public onlyOwner {\r\n        uint256 balance = address(this).balance;\r\n        require(balance > 0);\r\n        _widthdraw(depositaddress, address(this).balance);\r\n    }\r\n\r\n    function _widthdraw(address _address, uint256 _amount) private {\r\n        (bool success, ) = _address.call{value: _amount}(\"\");\r\n        require(success, \"Transfer failed.\");\r\n    }\r\n\r\n    function giftMint(address[] memory _addrs, uint[] memory _tokenAmounts) public onlyOwner {\r\n        uint totalQuantity = 0;\r\n        uint256 total = totalToken();\r\n        for(uint i = 0; i < _addrs.length; i ++) {\r\n            totalQuantity += _tokenAmounts[i];\r\n        }\r\n        require( total + totalQuantity <= MAX_ELEMENTS, \"Max limit\" );\r\n        for(uint i = 0; i < _addrs.length; i ++){\r\n            for(uint j = 0; j < _tokenAmounts[i]; j ++){\r\n                total ++;\r\n                _mintAnElement(_addrs[i], total);\r\n            }\r\n        }\r\n    }\r\n\r\n    function mintUnsoldTokens(uint256[] memory _tokensId) public onlyOwner {\r\n\r\n        require(PAUSE, \"Pause is disable\");\r\n\r\n        for (uint256 i = 0; i < _tokensId.length; i++) {\r\n            if(rawOwnerOf(_tokensId[i]) == address(0)){\r\n                _mintAnElement(owner(), _tokensId[i]);\r\n            }\r\n        }\r\n    }\r\n}",
  "sourcePath": "C:\\Users\\FR\\Documents\\bsc\\contracts\\PIXIU.sol",
  "compiler": {
    "name": "solc",
    "version": "0.8.0+commit.c7dfd78e.Emscripten.clang"
  },
  "schemaVersion": "3.4.3",
  "updatedAt": "2022-01-31T05:42:53.023Z",
  "networkType": "ethereum",
  "devdoc": {
    "kind": "dev",
    "methods": {
      "approve(address,uint256)": {
        "details": "See {IERC721-approve}."
      },
      "balanceOf(address)": {
        "details": "See {IERC721-balanceOf}."
      },
      "getApproved(uint256)": {
        "details": "See {IERC721-getApproved}."
      },
      "isApprovedForAll(address,address)": {
        "details": "See {IERC721-isApprovedForAll}."
      },
      "name()": {
        "details": "See {IERC721Metadata-name}."
      },
      "owner()": {
        "details": "Returns the address of the current owner."
      },
      "ownerOf(uint256)": {
        "details": "See {IERC721-ownerOf}."
      },
      "rawOwnerOf(uint256)": {
        "details": "Edit for rawOwnerOf token"
      },
      "renounceOwnership()": {
        "details": "Leaves the contract without owner. It will not be possible to call `onlyOwner` functions anymore. Can only be called by the current owner. NOTE: Renouncing ownership will leave the contract without an owner, thereby removing any functionality that is only available to the owner."
      },
      "safeTransferFrom(address,address,uint256)": {
        "details": "See {IERC721-safeTransferFrom}."
      },
      "safeTransferFrom(address,address,uint256,bytes)": {
        "details": "See {IERC721-safeTransferFrom}."
      },
      "setApprovalForAll(address,bool)": {
        "details": "See {IERC721-setApprovalForAll}."
      },
      "supportsInterface(bytes4)": {
        "details": "See {IERC165-supportsInterface}."
      },
      "symbol()": {
        "details": "See {IERC721Metadata-symbol}."
      },
      "tokenByIndex(uint256)": {
        "details": "See {IERC721Enumerable-tokenByIndex}."
      },
      "tokenOfOwnerByIndex(address,uint256)": {
        "details": "See {IERC721Enumerable-tokenOfOwnerByIndex}."
      },
      "tokenURI(uint256)": {
        "details": "See {IERC721Metadata-tokenURI}."
      },
      "totalSupply()": {
        "details": "See {IERC721Enumerable-totalSupply}."
      },
      "transferFrom(address,address,uint256)": {
        "details": "See {IERC721-transferFrom}."
      },
      "transferOwnership(address)": {
        "details": "Transfers ownership of the contract to a new account (`newOwner`). Can only be called by the current owner."
      }
    },
    "version": 1
  },
  "userdoc": {
    "kind": "user",
    "methods": {},
    "version": 1
  }
}